:100000000C9464000C948C000C948C000C948C0068
:100010000C948C000C948C000C948C000C94881123
:100020000C948C000C948C000C948C000C948C0020
:100030000C948C000C948C000C948C000C948C0010
:100040000C943C120C948C000C940A120C94E41145
:100050000C948C000C948C000C948C000C948C00F0
:100060000C9486120C948C000000000025002800DF
:100070002B000200000000240027002A00000000DE
:1000800000230026002900040404040404040402DC
:100090000202020202030303030303010204081025
:1000A00020408001020408102001020408102000F2
:1000B0000000080002010000030407000000000027
:1000C00000000000C414201B11241FBECFEFD8E095
:1000D000DEBFCDBF26E0A6EFB2E001C01D92AA3A76
:1000E000B207E1F712E0A0E0B1E0E2E6FFE302C010
:1000F00005900D92A63FB107D9F710E0C3E6D0E016
:1001000004C02197FE010E94871DC236D107C9F79E
:100110000E942D150C94A41F0C9400008CBD9DBD55
:100120000895089508950895DB0114964D915C910A
:1001300015976D917C91DC01ED91FC910280F3812A
:10014000E02D0994AF92BF92CF92DF92EF92FF928F
:100150000F931F93CF93DF936C017B018B01040FEF
:10016000151FEB015E01AE18BF08C017D10759F08B
:100170006991D601ED91FC910190F081E02DC601CD
:100180000995892B79F7C501DF91CF911F910F91C7
:10019000FF90EF90DF90CF90BF90AF900895FC015B
:1001A000538D448D252F30E0842F90E0821B930BDC
:1001B000541710F0CF96089501970895FC01918D82
:1001C000828D981761F0A28DAE0FBF2FB11D5D9685
:1001D0008C91928D9F5F9F73928F90E008958FEF27
:1001E0009FEF08952FB7F8948091DB039091DC0383
:1001F000A091DD03B091DE032FBF8093E7039093BE
:10020000E803A093E903B093EA038FED93E00E9423
:10021000DE0097FF26C02FB7F8948091DB03909102
:10022000DC03A091DD03B091DE032FBF4091E70313
:100230005091E8036091E9037091EA03841B950BE8
:10024000A60BB70B4091E3035091E4036091E503E3
:100250007091E60384179507A607B707B0F28FEFF2
:100260009FEF0895FC01918D828D981731F0828D5A
:10027000E80FF11D858D90E008958FEF9FEF0895B1
:10028000FC01918D228D892F90E0805C9F4F821B15
:1002900091098F73992708958FED93E00E94400193
:1002A00021E0892B09F420E0822F089580E090E07E
:1002B000892B29F00E944C0181110C9400000895B3
:1002C000FC01A48DA80FB92FB11DA35ABF4F2C91CB
:1002D000848D90E001968F739927848FA689B789C2
:1002E0002C93A089B1898C91837080648C93938DB9
:1002F000848D981306C00288F389E02D80818F7D5C
:1003000080830895EF92FF920F931F93CF93DF9313
:10031000EC0181E0888F9B8D8C8D98131AC0E88941
:10032000F989808185FF15C09FB7F894EE89FF8910
:100330006083E889F98980818370806480839FBFAE
:1003400081E090E0DF91CF911F910F91FF90EF90AE
:100350000895F62E0B8D10E00F5F1F4F0F731127BE
:10036000E02E8C8D8E110CC00FB607FCFACFE889F9
:10037000F989808185FFF5CFCE010E946001F1CF20
:10038000EB8DEC0FFD2FF11DE35AFF4FF0829FB76D
:10039000F8940B8FEA89FB8980818062CFCFCF935D
:1003A000DF93EC01888D8823B9F0AA89BB89E8899D
:1003B000F9898C9185FD03C0808186FD0DC00FB643
:1003C00007FCF7CF8C9185FFF2CF808185FFEDCFC1
:1003D000CE010E946001E9CFDF91CF910895833073
:1003E00081F028F4813099F08230A9F008958730A7
:1003F000A9F08830C9F08430B1F4809180008F7DFD
:1004000003C0809180008F7780938000089584B529
:100410008F7784BD089584B58F7DFBCF8091B00028
:100420008F778093B00008958091B0008F7DF9CFD1
:100430001F93CF93DF93282F30E0F901E155FF4F51
:100440008491F901E556FF4FD491F901E957FF4F27
:10045000C491CC23A9F0162F81110E94EF01EC2F3B
:10046000F0E0EE0FFF1FE859FF4FA591B4918FB751
:10047000F894EC91111108C0D095DE23DC938FBF66
:10048000DF91CF911F910895DE2BF8CF909100015D
:1004900089130BC0E2E7F0E0E4919FEF9093000135
:1004A000E13049F028F0E23061F060E00C9418028D
:1004B00010926E00FACF90916F009D7F90936F0025
:1004C000F4CF909170009D7F9093700091E0909395
:1004D000B0009091B100987F94609093B100109219
:1004E000B300E3CFCF93DF9390E0FC01E556FF4FDD
:1004F000249189579F4FFC0184918823D1F090E08B
:10050000880F991FFC01ED58FF4FA591B491FC0194
:10051000E859FF4FC591D49161110EC09FB7F8946F
:100520008C91E22FE0958E238C932881E223E8833F
:100530009FBFDF91CF9108958FB7F894EC91E22B94
:10054000EC938FBFF6CF3FB7F8948091C2039091A0
:10055000C303A091C403B091C50326B5A89B05C0F1
:100560002F3F19F00196A11DB11D3FBFBA2FA92F32
:10057000982F8827BC01CD01620F711D811D911D2F
:1005800042E0660F771F881F991F4A95D1F708959B
:100590008F929F92AF92BF92CF92DF92EF92FF9293
:1005A0006B017C010E94A3024B015C01C114D104C8
:1005B000E104F104B9F00E94A302681979098A09DB
:1005C0009B09683E73408105910580F321E0C21AC2
:1005D000D108E108F10888EE880E83E0981EA11C7E
:1005E000B11CE4CFFF90EF90DF90CF90BF90AF9021
:1005F0009F908F90089585ED8093BC008091BC0002
:1006000084FDFCCF1092D303089520917A03260F26
:100610003327331F21323105ECF42091D303FC0141
:1006200090E080E0243069F082E00895A0917A03A0
:100630002191AC01465A5C4FA40FB52FB11D2C93EC
:100640000196861798F380917A03680F60937A0376
:1006500080E0089581E008950895E091D7038091A6
:10066000D603E81730F4F0E0E65CFC4F808190E0C0
:1006700008958FEF9FEF08959091D7038091D6034F
:100680002FEF3FEF981748F4E92FF0E0E65CFC4FBE
:10069000208130E09F5F9093D703C9010895809136
:1006A000D6039091D703891B990B0895CF92DF92BF
:1006B000EF92FF920F931F93CF93DF937C01CB01B7
:1006C0008A0120913903222389F0EB016B01C40ECA
:1006D000D51ECC15DD0569F06991D701ED91FC912E
:1006E0000190F081E02DC7010995F3CF642F0E949E
:1006F0000503C801DF91CF911F910F91FF90EF90FB
:10070000DF90CF900895CF93DF931F92CDB7DEB7E0
:100710006983209139032223F9F02091D4032032F8
:1007200058F021E030E0FC013383228390E080E048
:100730000F90DF91CF9108958091D503E82FF0E0DD
:10074000E75EFC4F998190838F5F8093D503809300
:10075000D40381E090E0ECCF61E0CE0101960E94ED
:100760000503F7CFBC016E5F7F4FDC01ED91FC917B
:100770000190F081E02D40E0099591E0811190E039
:10078000892F089508958EBD00000DB407FEFDCF9A
:100790008EB50895DF92EF92FF920F931F93CF9340
:1007A000DF937C01062FD42E152F83E590E00E9465
:1007B0008E0060E0F70186850E94180282E10E94A7
:1007C000C303CD2DD12F0C0F1D2F111DC017D10725
:1007D00021F089910E94C303F9CF61E0F70186857A
:1007E000DF91CF911F910F91FF90EF90DF900C94CC
:1007F00018021F93CF93DF93EC01162F83E590E04F
:100800000E948E0060E08E850E941802812F806811
:100810000E94C30380E00E94C303182F61E08E850D
:100820000E941802812FDF91CF911F9108950F939D
:100830001F93CF93DF93EC01062F142F83E590E0F5
:100840000E948E0060E08E850E941802802F0E9418
:10085000C303812F0E94C30361E08E85DF91CF9196
:100860001F910F910C941802CF92DF92EF92FF929A
:100870000F931F93CF93DF93EC016B01142F79013A
:1008800040E062E00E94170444E06AE0CE010E946A
:10089000170440E864E1CE010E941704A601612F0D
:1008A000CE010E94CA0343E062E0CE010E94170419
:1008B00008E813E16AE0CE010E94F90382FF1BC041
:1008C00040E062E0CE010E94170464E4CE010E9481
:1008D000F903F701808362E4CE010E94F903F70176
:1008E000818380E0DF91CF911F910F91FF90EF9076
:1008F000DF90CF90089501501109E1F683E0F2CF27
:100900003F924F925F926F927F928F929F92AF929F
:10091000BF92CF92DF92EF92FF920F931F93CF93EC
:10092000DF9300D0CDB7DEB74C012B01D42E3901B7
:1009300080E0E114F10411F0F7018081BC2CB29445
:1009400090EFB922B80E40E062E0C4010E941704A3
:100950004FE768E0C4010E94170440E864E1C40165
:100960000E941704A2016D2DC4010E94CA034B2DE1
:100970006AE1C4010E9417044CE062E0C4010E94D5
:1009800017046AE1C4010E94F903482F40686AE134
:10099000C4010E94170420ED422E27E0522E68E089
:1009A000C4010E94F903982F907309F0B6C080FD2E
:1009B00004C0F1E04F1A510891F783E094C061142C
:1009C000710409F46DC00115110509F469C064E1F1
:1009D000C4010E94F903B82EF80180818B1508F438
:1009E00096C0B082BB20E1F183E590E00E948E00CA
:1009F00060E0F40186850E941802BA9482E90E94A0
:100A0000C303CC20B1F08FEF90E09C0102C0220F15
:100A1000331FCA94E2F7690182E90E94C3039C2D47
:100A20009095F301208192238C21982B9083CC24E4
:100A3000C39423014C0C511CCB1440F482E90E9456
:100A4000C303F20181932F01C394F6CF80E00E948B
:100A5000C303F201808361E0F40186850E941802DD
:100A600068E1C4010E94F9038770E114F10411F0F8
:100A7000F701808333FC4DC06114710409F44BC04D
:100A80000115110509F447C0AA2009F444C0F80172
:100A90004081413039F4843009F049C08FEF23C0E0
:100AA00080E0E8CF423008F442C0811140C042509B
:100AB0009E012F5F3F4FB301C4010E943404811196
:100AC00012C0F8019081690E711CF30132972081E8
:100AD000998129132CC0F1E06F1A7108F30120816C
:100AE0009A81291324C00F900F90DF91CF911F910D
:100AF0000F91FF90EF90DF90CF90BF90AF909F90BD
:100B00008F907F906F905F904F903F90089584E01A
:100B1000EACF82E0E8CF80E0E6CF6CE0C4010E943B
:100B2000F903382E837109F44ACF81E0DCCF87E0E6
:100B3000DACF8F929F92AF92CF92EF92FF920F9364
:100B40001F93CF93DF9300D000D01F92CDB7DEB7B5
:100B50004C0182E08D8340E064E2C4010E941704EE
:100B600040E066E2C4010E94170446E268E4C40162
:100B70000E94170486E28B838D818230D8F16CE16C
:100B8000C4010E94F903482F4F776CE1C4010E9411
:100B9000170487E08C83A12CC12CCE0104967C0124
:100BA0008E010B5F1F4F9E012F5F3F4F41E0BE0143
:100BB0006D5F7F4FC4010E948004982F811117C080
:100BC0008D818230B9F48C81811114C081E00F9045
:100BD0000F900F900F900F90DF91CF911F910F9179
:100BE000FF90EF90CF90AF909F908F90089581E00D
:100BF000923069F380E0EBCF2F923F924F925F9259
:100C00006F927F928F929F92AF92BF92CF92DF921C
:100C1000EF92FF920F931F93CF93DF93CDB7DEB781
:100C20002D970FB6F894DEBF0FBECDBF16E041354D
:100C300008F04AC1342E3B014C016CE10E94F903DB
:100C4000482F4F776CE1C4010E94170483E9898320
:100C5000332029F081E0F3019081953008F480E0A1
:100C600022242394B12C9B2D990F990F990FD32CEB
:100C7000D91AD7FCD12C32E0882319F098E89B834D
:100C800033E021E09D2D977009F420E09D2D95958E
:100C900095959595290FC9F094E0811193E0291756
:100CA00008F4922FEB2DF0E03196E60DF71D232F7F
:100CB0004191A1E0B0E0AC0FBD1FA20FB11D4C935C
:100CC0002F5F422F431B491798F3882311F0F8E058
:100CD000DF0E8FE18D150CF082C090E79A838B8137
:100CE0009C8189279D8189279E8189278F839E01E9
:100CF000285F3F4F47E0BE016F5F7F4FC4010E94F6
:100D00003404182F8111E0C01A86E3E0EB87DC86FB
:100D1000CE0107962C0199E09D87CA844C2D4295FF
:100D2000407F4C0D6AE1C4010E941704A12CCE0142
:100D30000A967C018E01055F1F4F92014D85BE0111
:100D40006F5F7F4FC4010E948004182F823009F02A
:100D500065C06CE1C4010E94F90385FDB5C08F71C7
:100D600009F480E2282F30E04D2DDD0C550B4217A1
:100D700053070CF09DC0D82EE82FE595E595E59535
:100D8000EF5F982F977081E009F480E0E80F81E031
:100D900090E08C0F9D1F8E0F911DFC012150310999
:100DA0002770332781E090E002C0880F991F2A95B1
:100DB000E2F79C018081822B80838BCF85E9898338
:100DC000332031F081E0F3019081983008F04BCF6F
:100DD00080E049CF87E9898326E0B22EF9CF9D2DA7
:100DE00097709A878D2D8595859585958E5F282F8F
:100DF0002295207F290F2A8321E0911101C020E054
:100E0000280F2D8744244394512C4C0E5D1E480E10
:100E1000511CE9E0E81BEB87DC867FCF811154C0D1
:100E200080E2D82E9C8590320CF457CF8B81883885
:100E300009F040C083E093E0EB2DF0E03196E60D41
:100E4000F71D980FA1E0B0E0AC0FBD1FA80FB11DBA
:100E50002C9121938F5F8913F5CFBB84E3E0BE1201
:100E60004DC08A8581114AC09E012D5F3F4F41E0F0
:100E7000B201C4010E943404182F811125C09B8146
:100E8000F201818198133CC09C818281981338C003
:100E9000808182FF12C02394F2E02F1609F48ECFD6
:100EA00083E0281609F496CF91E0291609F4CECEF6
:100EB00015E00AC082E094E0BFCFF3018387822D62
:100EC000880F820D8F5F8083812F2D960FB6F89447
:100ED000DEBF0FBECDBFDF91CF911F910F91FF906D
:100EE000EF90DF90CF90BF90AF909F908F907F90CA
:100EF0006F905F904F903F902F90089511E0E4CF56
:100F000017E0E2CFCF93FC01C48121E020933903A5
:100F1000C09318031092D5031092D4038385682BD5
:100F20008CE794E00E9483039091D403913208F0FF
:100F30003FC08091D3038111FCCF82E08093D30323
:100F400081E08093D2038FEF80939D031092BF03C3
:100F50009093BE03A9E1B3E0EEE9F3E080E09813DB
:100F60002FC01092C0038091C003CC0FC82BC09338
:100F7000C0038091D103813039F51092D103809163
:100F8000C0038093BB008091BC0083FDF8CF85EC4B
:100F90008093BC008091D3038230E1F380919D0364
:100FA0008F3F31F080919D03803211F080919D033D
:100FB0001092D5031092D40310923903CF91089563
:100FC0002D9121938F5FCBCF85EEE2CF90E080E033
:100FD0000895FC01A081B1818C918D3021F03CF409
:100FE00089508230A8F51196B183A083F3CF803267
:100FF000D1F38F3209F0089511968C9111978A32AE
:1010000019F08F32C1F008951196B183A083A081A9
:10101000B181CD0101969183808311968C911197B6
:101020008823B1F08A3299F712968C9112978F32F9
:1010300071F71396D9CFA081B181CD01019691832B
:10104000808311968C91882319F08A30A1F7C2CF42
:1010500008951F93CF93DF93EC01162F0E94E907A9
:10106000E881F9818081181308C03196F983E883FB
:1010700081E0DF91CF911F91089580E0FACFEF9248
:10108000FF920F931F93CF93DF938C01DC01149693
:10109000CD91DC91EA80FB808E819F81E80EF91E64
:1010A000C80102960E94E907D8011296ED91FC91C1
:1010B0008081873219F0823209F042C03196D8011E
:1010C0001396FC93EE931297D8011296ED91FC9132
:1010D00013979081992309F462C09F012F5F3F4FBE
:1010E00013963C932E931297891709F458C09C3598
:1010F00099F49181ABE9B1E02C91222321F0921374
:101100001DC011969C91992309F449C03296D801CB
:101110001396FC93EE9312974E815F819A012F5F95
:101120003F4F6C817D816217730770F2EA81FB810A
:10113000E40FF51F3F832E839083C6CF1296DCCF3A
:1011400080330CF444C08A3324F08F3504F18B379C
:1011500004F5F801228133812F5F3F4F33832283CF
:101160004E815F819A012F5F3F4F6C817D816217B5
:10117000730738F0EA81FB81E40FF51F3F832E836C
:101180008083D8011296ED91FC918081D9CF813472
:10119000F4F08B35F4F293ED980F9230D0F22E816B
:1011A0003F81C90101964C815D814817590790F034
:1011B000EA81FB81E20FF31F9F838E831082C701B8
:1011C000DF91CF911F910F91FF90EF9008958B3297
:1011D00011F7BFCFF12CE12CF2CF0F931F93CF93D8
:1011E0008C0180910001883071F08F3F19F1B801B6
:1011F000110F880B990B0E94C80288E0CF911F91B4
:101200000F910C944602E2E7F0E0C491C7FDEFCFE6
:1012100061E088E00E947202CC2309F479C0C230F8
:1012200009F08DC08091B100887F84608093B10007
:1012300081EBABC088E080930001E2E7F0E0C4916D
:10124000CF3FA9F2C13021F150F0C23009F43EC0C5
:10125000C7FDCDCF61E088E00E947202E0CF14BCF0
:1012600015BC84B5826084BD85B5816085BDEFE81D
:10127000F0E0E491F0E0EE0FFF1FE859FF4F859199
:101280009491E3EAF0E0E491E0930F03C0E0C0CF73
:10129000109280001092810080918100886080937C
:1012A000810080918100816080938100EFE8F0E00F
:1012B000E491F0E0EE0FFF1FE859FF4F8591949104
:1012C000E3EAF0E0E491E0930E03A2CF1092B000C5
:1012D0001092B1008091B00082608093B000809144
:1012E000B10081608093B100EFE8F0E0E491F0E0BC
:1012F000EE0FFF1FE859FF4F859194919093C7031C
:101300008093C603E3EAF0E0E491E093C80380CF62
:1013100085B5887F836085BD81EB87BD8FEF9FEFAB
:10132000DC018093140390931503A0931603B093EC
:10133000170380916E00826080936E0058CFC13099
:10134000E9F480918100887F81608093810083EA45
:101350009CE290938900809388008FEF9FEFDC01DF
:101360008093100390931103A0931203B09313037F
:1013700080916F00826080936F0039CFC23021F07E
:10138000C11135CF83EAC9CF83EA8093B3008FEFD1
:101390009FEFDC018093C9039093CA03A093CB0312
:1013A000B093CC03809170008260809370001FCF57
:1013B000FC0186819781680F791F2481358126176A
:1013C000370738F022813381820F931F778366833A
:1013D000089590E080E008958091060381110BC08C
:1013E000109203031092020310920503109204035B
:1013F00081E08093060382E093E008958091FA02F1
:1014000081110BC01092F7021092F6021092F902AD
:101410001092F80281E08093FA0286EF92E008953C
:10142000DB01109749F0ED91FC9111970190F0814B
:10143000E02DBC01CD01099490E080E008950F9368
:101440001F93CF938C01C62F0E9482076C2F64607C
:10145000C8010E9482076C2F6B7FC8010E9482071F
:1014600083EC90E00197F1F7CF911F910F910895D0
:101470000F931F93CF93DF938C01D62FC42F607FE0
:10148000642B0E941F0A80E1D89FB00111246C2BAD
:10149000C801DF91CF911F910F910C941F0ACF9338
:1014A000DF93CDB7DEB728970FB6F894DEBF0FBE37
:1014B000CDBF98E0E7E0F1E0DE01119601900D92DA
:1014C0009A95E1F79091A306981708F48FEF90E0B2
:1014D000880F991F21E030E02C0F3D1F820F931FD2
:1014E000FC016081606840E08AE996E028960FB6CA
:1014F000F894DEBF0FBECDBFDF91CF910C94380AB8
:1015000041E00E94380A81E090E00895CF93DF9394
:10151000EC0188819981009711F00E943D1E19828B
:1015200018821D821C821B821A82DF91CF9108953E
:10153000FC01808191810C943D1EFB0101900020F3
:10154000E9F73197AF01461B570BDC01ED91FC9198
:101550000280F381E02D09948F929F92AF92BF9207
:10156000EF92FF920F931F93CF93DF93CDB7DEB728
:10157000A1970FB6F894DEBF0FBECDBF7C01FA0174
:10158000CB0119A2223008F42AE08E010F5D1F4F13
:10159000822E912CB12CA12CBF01A50194010E9497
:1015A000651DF901CA016A300CF5605DD8016E93C2
:1015B0008D01232B242B252B79F790E080E01097C9
:1015C00021F0BD01C7010E949D0AA1960FB6F894B3
:1015D000DEBF0FBECDBFDF91CF911F910F91FF9066
:1015E000EF90BF90AF909F908F900895695CDECF91
:1015F000CF92DF92EF92FF920F931F93CF93DF93DF
:10160000EC016A017B01E881F9810190F081E02D14
:101610006DE209958C0144275527BA014C195D09E3
:101620006E097F092AE0CE010E94AC0A800F911F4B
:10163000DF91CF911F910F91FF90EF90DF90CF90AE
:101640000895AB01770F660B770B77FD0C94F80AC2
:101650002AE00C94AC0A6115710511F00C949D0AF6
:1016600090E080E008950F931F93CF93DF938B0159
:10167000FC01C281D381209759F06A817B810115D9
:10168000110519F06115710549F46017710759F4D6
:10169000CE01DF91CF911F910F910895C8010E9453
:1016A000941F892BA9F30990D881C02DE4CF66EA55
:1016B00071E00E94330BFC01892B09F449C084813D
:1016C00095818330910540F5019708F441C006806B
:1016D000F781E02D3097E1F1808161E070E084379F
:1016E00049F18B3279F18D3271F5319691E070E0EC
:1016F00060E04AE0819120ED280F2A3030F5469FC6
:101700009001479F300D1124682F880F770B60538D
:101710007109620F731FEECF8530910548F0059770
:1017200059F066817781808591850E94161D02C0DF
:1017300066817781CB010895668177817195619586
:101740007109F8CF319690E0D2CF9111F7CFF2CF57
:1017500070E060E0EFCFAF92BF92CF92DF92EF9256
:10176000FF920F931F93CF93DF9300D000D000D050
:10177000CDB7DEB77C01DC0116968C91811104C0D7
:101780000E94EC098C0188C08150F7018683C080DB
:10179000D180B60184E090E00E94100A8C0100978D
:1017A00009F48CC0DC011196DC92CE9213961C9247
:1017B0001E9212976701B2E0CB0ED11C6BE7C601F7
:1017C0000E9429088823E1F26DE7C6010E942908DA
:1017D00081115EC0C7010E943F085C01892B81F224
:1017E0006AE3C6010E942908882351F21A821982ED
:1017F000BE016F5F7F4FC7010E94620C882309F40E
:10180000BFCFB501C8010E94330B009759F5F8010D
:10181000608171818AE090E00E94100A009741F097
:10182000DC0111961C921E9215961C921E92149722
:10183000D8011296ED91FC91309729F4F801938329
:10184000828308C0F9012081318121153105D1F74A
:1018500091838083009709F493CFDC011396BC92A7
:10186000AE92129726E0FE013196DC0114960190AB
:101870000D922A95E1F76DE7C6010E9429088111B2
:1018800007C06CE2C6010E9429088111A3CF78CF5E
:10189000F70186818F5F8683C80126960FB6F8947C
:1018A000DEBF0FBECDBFDF91CF911F910F91FF9093
:1018B000EF90DF90CF90BF90AF9008950E94EC0919
:1018C0008C0178CF8F929F92AF92BF92CF92DF928E
:1018D000EF92FF920F931F93CF93DF9300D000D02E
:1018E00000D0CDB7DEB77C016B015C0182E0A80EB1
:1018F000B11CC5010E94E907D7011296ED91FC9138
:10190000139780818B35E1F08B3709F4B2C011E079
:10191000873219F0823209F010E0C7010E943F08B7
:10192000009709F485C021E030E0112309F4ABC031
:1019300022E030E0F601318320839383828379C0F3
:10194000F7018681811104C00E94FE098C016BC0E1
:10195000815016968C9316978D909C90B40184E0DC
:1019600090E00E94100A8C01009709F495C0FC01D8
:1019700091828082138212826BE5C5010E94290840
:10198000882311F36DE5C5010E942908811144C027
:101990001A821982BE016F5F7F4FC7010E94620CDD
:1019A000882391F2D8016D917C9188E090E00E94AB
:1019B000100ADC01892B39F011961C921E921396A5
:1019C0001C921E921297F801228133812115310554
:1019D00021F4B383A28308C09C01F9018081918125
:1019E0000097D1F7B183A083109709F4ADCF86E0BB
:1019F000FE013196129601900D928A95E1F76DE500
:101A0000C5010E942908811107C06CE2C5010E942E
:101A100029088111BDCF98CFD70116968C911697C2
:101A20008F5F16968C93F80180819181892BA9F4A0
:101A300010E0812F26960FB6F894DEBF0FBECDBF03
:101A4000DF91CF911F910F91FF90EF90DF90CF909A
:101A5000BF90AF909F908F90089586E090E0D60160
:101A600011969C938E9313961C930E93129711E0EC
:101A7000E0CFC7010E94AB0BFC0120813181232BF9
:101A8000B9F227E030E0D60111963C932E931396DD
:101A90009C938E931297EBCF0E94FE098C016CCF22
:101AA0000F931F93CF93DF938C01FC01C081D181F1
:101AB000C130D10559F4628173816115710531F02E
:101AC0008BEA91E00E94941F892B59F0219722976D
:101AD00040F4F80182819381DF91CF911F910F91A2
:101AE000089590E080E0F8CF0F931F93CF93DF939A
:101AF000EC0188819981009759F02A813B81261752
:101B0000370730F081E0DF91CF911F910F91089559
:101B10008B016F5F7F4F0E94C61E009759F099831B
:101B200088831B830A832C813D81232B59F7FC0179
:101B30001082E8CF80E0E7CFEF92FF920F931F93E0
:101B4000CF93DF936115710541F480E0DF91CF9170
:101B50001F910F91FF90EF90089541155105B1F03D
:101B60007B01EC010C811D81040F151FB8010E943F
:101B7000740D882351F3288139818C819D81B701AF
:101B8000820F931F0E949D1F1D830C8381E0DECF77
:101B90000F931F93CF93DF9300D0CDB7DEB78C01A7
:101BA000DC01ED91FC918081918169831A8241E091
:101BB00050E0BE016F5F7F4F0E949C0DF801828153
:101BC00093810196938382830F900F90DF91CF9141
:101BD0001F910F910895EF92FF920F931F93CF9350
:101BE000DF93EC01E880F980D7018D919C91FC0195
:101BF000048115816115710551F0FB0101900020F0
:101C0000E9F73197AF01461B570B0E949C0DD70196
:101C1000ED91FC91848195812A813B81820F931FF4
:101C2000801B910B9B838A83DF91CF911F910F9132
:101C3000FF90EF9008950F931F93CF93DF93CDB74D
:101C4000DEB766970FB6F894DEBF0FBECDBF9C011E
:101C5000CB011E8AFE0176960AE010E0B8010E94D0
:101C6000511D805D8293CB010097C1F7BF01C9016F
:101C70000E94EB0D66960FB6F894DEBF0FBECDBF87
:101C8000DF91CF911F910F910895FF920F931F93B2
:101C9000CF93DF936115710549F46BEA71E0DF9131
:101CA000CF911F910F91FF900C94EB0D8B01EC01E4
:101CB00062E2CE010E94C80DF80161918F01662396
:101CC00051F0E7E9F1E0F080FF2099F38181681796
:101CD00059F03296F8CF62E2CE01DF91CF911F9199
:101CE0000F91FF900C94C80D6CE5CE010E94C80DB9
:101CF0006F2DDFCF2F923F924F925F926F927F9224
:101D00008F929F92AF92BF92CF92DF92EF92FF920B
:101D10000F931F93CF93DF93CDB7DEB76C970FB6BA
:101D2000F894DEBF0FBECDBFDC01ED91FC91319781
:101D3000E830F10508F0D5C11B018C01EE55F14FDB
:101D40000C94871DEB10E3101711F610F21095108C
:101D5000B810AA0EFC014280538064807580A301F4
:101D60009201C301B2010E944E1B6BEB71E0811125
:101D700035C220E030E0A901C301B2010E944E1B30
:101D800087FF08C06DE2C1010E94C80D77FA709408
:101D900077F8709420E030E0A901C301B2010E94FD
:101DA0004E1B882389F0A3019201C301B2010E9456
:101DB000AA1C9B01AC01C301B2010E944E1B6FEB38
:101DC00071E0882309F40AC220E836E948E15BE4BF
:101DD000C301B2010E944C1D87FD7FC0A7E5EA2E1A
:101DE000A1E0FA2EB7E2CB2EB1E0DB2E1FE3A12E4D
:101DF00011E0B12E00E210E0188E1F8AD7015E912B
:101E00004E913E912E917D01C301B2010E944C1D65
:101E100087FD11C0F6012489358946895789C30198
:101E2000B2010E94B41B2B013C018F89988D800F59
:101E3000911F988F8F8B1595079594E0C91AD1083B
:101E4000AE14BF04D9F699249A9420E030E0A90199
:101E5000C301B2010E944C1D18160CF045C02CEABB
:101E600035EC47E257E3C301B2010E944E1B18163E
:101E7000DCF1A92DB4E0AB0250011124D12CC12C0E
:101E8000EFEF9E1689F17501EC0CFD1CF701E15F87
:101E9000FE4FA301920160817181828193810E9432
:101EA0004C1D18169CF4F701E15CFE4F2081318136
:101EB00042815381C301B2010E94B41B2B013C013A
:101EC0008F89988D801B910B988F8F8B1595079517
:101ED0009A9494E0C91AD108D3CF00E210E0E5E06B
:101EE0009E2E188E1F8AB1CFC301B2010E941D1D04
:101EF0006B017C014B015C0106E080E492E4AFE001
:101F0000B0E0898F9A8FAB8FBC8F102F01509AE071
:101F100089169104A104B104C8F0698D7A8D8B8D66
:101F20009C8D2AE030E040E050E00E94651D298F42
:101F30003A8F4B8F5C8FC501B4012AE030E040E05E
:101F400050E00E94651D49015A01DFCFC701B6016B
:101F50000E94531B9B01AC01C301B2010E94A91C4A
:101F60004B015C01698D7A8D8B8D9C8D0E94531B7A
:101F70009B01AC01C501B4010E94B41B4B015C0183
:101F80000E941D1D2B013C010E94531B9B01AC01B3
:101F9000C501B4010E94A91C9B01AC010E94AA1CAE
:101FA0000E941D1D460E571E681E791E898D9A8D32
:101FB000AB8DBC8D481659066A067B06D8F09FEF9C
:101FC000C91AD90AE90AF90AAF89B88DAB2B39F1D8
:101FD000BAE0CB16D104E104F10408F1EF89F88DE1
:101FE0003196F88FEF8B412C512C3201C12CD12C22
:101FF0007601C3945AE0852E912CA12CB12CC301FB
:10200000B201A50194010E94651D672B682B692B05
:1020100051F4111644F429013A011150F0CF412C2A
:10202000512C3201E7CF1E8ACE0146969A8F898FB6
:102030004AE0842E912CA12CB12CC701B601A50138
:1020400094010E94651D605DA98DBA8D6E93BA8F53
:10205000A98F69017A01C114D104E104F10469F77F
:10206000BD01C1010E94EB0D112351F1188A6E01CF
:10207000B0E1CB0ED11C012F76013AE0832E912CDA
:10208000A12CB12C015068F0C301B201A50194014B
:102090000E94651D605DF60162936F0129013A019E
:1020A000F1CF612F70E0F701E61BF70B31978EE25D
:1020B0008083609570956E0D7F1DC1010E94EB0DB0
:1020C0008F89988D97FF26C068EC71E0C1010E944E
:1020D000EB0D6F89788D719561957109C1010E9431
:1020E0001B0E6C960FB6F894DEBF0FBECDBFDF910E
:1020F000CF911F910F91FF90EF90DF90CF90BF9005
:10210000AF909F908F907F906F905F904F903F9097
:102110002F900895AF89B88DAB2B19F365E6C101F7
:102120000E94C80D6F89788DD9CFFC01028113817F
:102130006BE5C1010E94C80DD80112960D911C914A
:102140000115110581F0B101C80102960E947A0EB5
:10215000F801008111810115110529F06CE2C1011E
:102160000E94C80DEDCF6DE5C1010E94C80DB9CF29
:10217000DC0112960D911C916BE7C1010E94C80D04
:10218000F8010281138101151105D9F0D8011296C9
:102190006D917C91C1010E94450E6AE3C1010E94CC
:1021A000C80DB101C80104960E947A0EF8010081A1
:1021B00011810115110529F06CE2C1010E94C80DC1
:1021C000E2CF6DE7D1CFDC0112966D917C91C10118
:1021D0000E94450E86CFFC0162817381C1010E947D
:1021E000EB0D7FCF6DE2C1010E94C80DD8011296A0
:1021F0006D917D918D919C9115971E8A8E010A5E3D
:102200001F4F2AE0C22ED12CE12CF12CA701960100
:102210000E94651D605DF80162938F01B901CA01DA
:10222000611571058105910589F7BF01D7CFFC01C3
:1022300082819381A481B58160EB71E0892B8A2B27
:102240008B2B61F665EB71E0C9CFEF92FF920F9394
:102250001F93CF93DF93EC017B018A01BA010E94A7
:10226000740D81110BC0CE010E94860ACE01DF9150
:10227000CF911F910F91FF90EF9008951D830C83D4
:10228000B701888199810E949D1FF0CFFB010190C9
:102290000020E9F73197AF01461B570B0C9425112D
:1022A000FC01118210821382128215821482611540
:1022B000710551F0FB0101900020E9F73197AF0162
:1022C000461B570B0C94251108950F931F93CF9322
:1022D000DF9300D0CDB7DEB78C0165EA71E00E94D4
:1022E00050110E94F20097FD0BC089831A8241E0D1
:1022F00050E0BE016F5F7F4FC8010E949C0DF1CF7F
:10230000C8010F900F90DF91CF911F910F91089509
:102310001F920F920FB60F9211242F933F934F935A
:102320005F936F937F938F939F93AF93BF93EF933D
:10233000FF938091C9039091CA03A091CB03B09100
:10234000CC03892B8A2B8B2BD1F19091C803E09180
:10235000C603F091C7038081892780838091C903D8
:102360009091CA03A091CB03B091CC031816190623
:102370001A061B069CF48091C9039091CA03A09190
:10238000CB03B091CC030197A109B1098093C90394
:102390009093CA03A093CB03B093CC03FF91EF912A
:1023A000BF91AF919F918F917F916F915F914F916D
:1023B0003F912F910F900FBE0F901F901895809115
:1023C00000010E944602EACF1F920F920FB60F92B1
:1023D00011242F933F934F935F936F937F938F932A
:1023E0009F93AF93BF93EF93FF938FED93E00E9482
:1023F0006001FF91EF91BF91AF919F918F917F917C
:102400006F915F914F913F912F910F900FBE0F9061
:102410001F9018951F920F920FB60F9211242F93B1
:102420008F939F93EF93FF93E091EF03F091F0036D
:102430008081E091F503F091F60382FD1BC090814D
:102440008091F8038F5F8F732091F903821741F019
:10245000E091F803F0E0E152FC4F958F8093F80390
:10246000FF91EF919F918F912F910F900FBE0F9041
:102470001F9018958081F4CF1F920F920FB60F9284
:1024800011242F933F938F939F93AF93BF9380918A
:10249000DB039091DC03A091DD03B091DE0330916A
:1024A000C10323E0230F2D3758F50196A11DB11D5F
:1024B0002093C1038093DB039093DC03A093DD039F
:1024C000B093DE038091C2039091C303A091C40333
:1024D000B091C5030196A11DB11D8093C2039093D5
:1024E000C303A093C403B093C503BF91AF919F9161
:1024F0008F913F912F910F900FBE0F901F901895C5
:1025000026E8230F0296A11DB11DD2CF1F920F9274
:102510000FB60F9211242F933F934F935F936F93B6
:102520007F938F939F93AF93BF93EF93FF9380918C
:10253000B900887F803609F44AC0F0F5883209F482
:10254000A7C018F5803109F49BC0B8F4882309F4BA
:10255000F9C0883009F494C0FF91EF91BF91AF9119
:102560009F918F917F916F915F914F913F912F91AB
:102570000F900FBE0F901F901895883109F488C0F6
:10258000803251F780939D0314C0803409F49DC0BC
:1025900040F48033B9F38833F9F680939D0385ECDA
:1025A000B0C0803509F485C0883509F496C08834F8
:1025B00099F60E94FB02D0CF883909F48CC038F517
:1025C000883729F050F4883611F0803729F683E0F7
:1025D0008093D30310929C0357C0883809F47BC0C2
:1025E000803919F0803809F0B7CF80919C03803290
:1025F00008F071C0E0919C0381E08E0F80939C03F2
:102600008091BB00F0E0E458FC4F80833DC0803BEC
:1026100039F0E0F4803A09F479C0883A09F09CCFA7
:1026200084E08093D30310927B0310927A03E091AD
:10263000CF03F091D003099580917A0381110FC0E7
:1026400081E080937A0310925A0309C0803C09F418
:10265000A6CF883C09F4A3CF883B09F07DCFE09159
:102660007B0381E08E0F80937B03F0E0E65AFC4F02
:1026700080818093BB0090917B0380917A0329C075
:102680008091C0038093BB0085EC8093BC0064CF35
:102690009091BF038091BE03981758F5E091BF0356
:1026A00081E08E0F8093BF03F0E0E256FC4F808103
:1026B000E9CFE091BF0381E08E0F8093BF0380914B
:1026C000BB00F0E0E256FC4F80839091BF03809105
:1026D000BE039817C8F285E8D8CFE091BF0381E028
:1026E0008E0F8093BF038091BB00F0E0E256FC4F59
:1026F00080838091D20381115CCF81E08093D103EC
:1027000084EA8093BC001092D30326CF85EC80939B
:10271000BC001092D30380919C03803230F4E0918E
:102720009C03F0E0E458FC4F108260919C0370E041
:10273000E091CD03F091CE038CE793E009951092E0
:102740009C030ACF10929D0334CFCF93DF93EC010B
:102750004BE050E06CE272E00E949C0D811103C0DE
:10276000CE010E94860ACE01DF91CF910895CF92CB
:10277000DF92EF92FF920F931F93CF93DF93CDB72A
:10278000DEB72C970FB6F894DEBF0FBECDBF8C011D
:10279000CB016BEC71E00E94330B009709F445C04C
:1027A0007C0124E0E20EF11CC7010E94500DBC0127
:1027B000892BE9F565EA71E0CE0101966C010E9472
:1027C0005011DC86CB86CE010B9698878F831A86B4
:1027D0001986BE01695F7F4FC7010E947A0E898109
:1027E0009A81F801918380838B819C81938382837A
:1027F0008D819E81958384831A8219821C821B821B
:102800001E821D82C6010E94980AC8012C960FB62E
:10281000F894DEBF0FBECDBFDF91CF911F910F9116
:10282000FF90EF90DF90CF90089565EA71E0C801C6
:102830000E945011EACFAF92BF92CF92DF92EF92F7
:10284000FF920F931F93CF93DF936C015B017A018B
:1028500089012417350720F48F2D7901042F182FB3
:1028600065EA71E0C6010E945011D5011496CD9120
:10287000DC91EC16FD06E0F40C171D0708F4E801E6
:10288000D501ED91FC911197EC0FFD1F1081108285
:102890006D917C916E0D7F1DC60161157105A1F0D2
:1028A0000E944611F50180819181C80FD91F1883BC
:1028B000C601DF91CF911F910F91FF90EF90DF90B4
:1028C000CF90BF90AF9008950E94860AEBCF8F9271
:1028D0009F92AF92BF92CF92DF92EF92FF920F93AF
:1028E0001F93CF93DF93EC017A01DB011496CD9017
:1028F000DC908601015011092FEF3FEF50E040E0DE
:1029000090E080E0F0E0E0E0081719071CF1EE1617
:10291000FF061CF1DC0111965D018C159D0560F42C
:10292000DB018D909C908114910431F0D401A80FAB
:10293000B91FAC91AB3319F00817190749F4319658
:10294000A9014F5F5F4F95010817190709F09C0116
:10295000C501DACFEE16FF068CF4CE010E941B14DF
:10296000CE01DF91CF911F910F91FF90EF90DF90FB
:10297000CF90BF90AF909F908F90089565EA71E0DF
:10298000CE010E945011ECCFEFEDF3E013821282E2
:1029900088EE93E0A0E0B0E084839583A683B783BC
:1029A0002BE531E03183208325EC30E03587248727
:1029B00024EC30E03787268720EC30E0318B208B09
:1029C00021EC30E0338B228B22EC30E0358B248BF2
:1029D00026EC30E0378B268B118E128E138E148EE0
:1029E000ECE7F4E01382128284839583A683B78395
:1029F0008DE691E091838083EAE9F6E0138212820A
:102A000089E891E09183808387E2848380E18087F5
:102A100082E08187128688E08387EAE8F6E08FE724
:102A200091E0918380838AE0868789E08787EEE85A
:102A3000F4E086E994E09383828384EF91E09583C8
:102A400084831782168285E991E09183808365EA09
:102A500071E088E894E00C945011CF93DF93CDB7E8
:102A6000DEB7A1970FB6F894DEBF0FBECDBF789446
:102A700084B5826084BD84B5816084BD85B5826083
:102A800085BD85B5816085BD80916E008160809334
:102A90006E0010928100809181008260809381009D
:102AA00080918100816080938100809180008160AD
:102AB000809380008091B10084608093B100809108
:102AC000B00081608093B00080917A008460809330
:102AD0007A0080917A00826080937A0080917A00F7
:102AE000816080937A0080917A00806880937A0078
:102AF0001092C1001092D7031092D6031092D50302
:102B00001092D4031092D30381E08093D2031092E9
:102B1000D10361E082E10E94180261E083E10E943A
:102B200018028091B9008E7F8093B9008091B9001E
:102B30008D7F8093B90088E48093B80085E480930A
:102B4000BC0081E990E09093D0038093CF0382E9A9
:102B500090E09093CE038093CD0310929F068091D6
:102B6000A306823018F098E090939F069091A406F7
:102B7000992339F0813029F480919F0684608093F5
:102B80009F0662E370E080E090E00E94C8026091DE
:102B9000A5068AE996E00E94820768EE73E080E06D
:102BA00090E00E94C80260E38AE996E00E941F0A52
:102BB0000BE416E4C8010197F1F760E38AE996E0B7
:102BC0000E941F0AC8010197F1F760E38AE996E0C5
:102BD0000E941F0A83E592E00197F1F760E28AE91B
:102BE00096E00E941F0A60919F06606240E08AE9B9
:102BF00096E00E94380A84E08093A00640E06CE0F2
:102C00008AE996E00E94380A40E061E08AE996E0AD
:102C10000E94380A0BE31FE1C8010197F1F752E067
:102C2000F52EF092A10640E066E08AE996E00E9467
:102C3000380A40E062E08AE996E00E94380AC8015A
:102C40000197F1F780E00E944F0A65ED71E08AE993
:102C500096E00E942B0BE091EF03F091F003F082DD
:102C6000E091EB03F091EC031082E091ED03F09121
:102C7000EE038FEC80831092F703E091F303F09161
:102C8000F40386E08083E091F103F091F203808108
:102C900080618083E091F103F091F203808188608C
:102CA0008083E091F103F091F2038081806880835A
:102CB000E091F103F091F20380818F7D80831FB753
:102CC000F8948091D803811127C0E1E9F0E0849164
:102CD000E5EAF0E09491E82FF0E0EE0FFF1FED58E9
:102CE000FF4FA591B491EC91E92321F461E08AE0D2
:102CF0000E94180261E08AE00E9472028CB5806135
:102D00008CBD8CB580648CBD61E08DE00E94720248
:102D100061E08BE00E9472028091D8038F5F809304
:102D2000D8031FBF61E0809198060E94720261E0A3
:102D3000809198060E941802809199068F3F09F4AD
:102D40009FC160E00E9472022091990630E0F90173
:102D5000E155FF4F8491F901E556FF4F0491F901C8
:102D6000E957FF4F149111117CC161E080919906E0
:102D70000E94720260E0809199060E94180283E02E
:102D800090E00197F1F761E0809199060E941802A6
:102D900062E370E080E090E00E94C80240E064E2FC
:102DA0008AE896E00E94170440E066E28AE896E02E
:102DB0000E94170446E268E48AE896E00E9417043D
:102DC00040E864E58AE896E00E94170449EA66E56F
:102DD0008AE896E00E94170443E068E58AE896E0F6
:102DE0000E94170448EE6AE58AE896E00E941704FC
:102DF00040E46AE28AE896E00E9417044DE362E24A
:102E00008AE896E00E94170468E28AE896E00E9449
:102E1000F903982F9370933039F0482F436068E29C
:102E20008AE896E00E94170461E088E00E9472023E
:102E300082E390E00E94ED0840E061E08AE996E0DC
:102E40000E94380A8BE39FE10197F1F784E690E056
:102E50000E94ED0880E00E944F0A60EE71E08AE96E
:102E600096E00E942B0B60ED77E080E090E00E94FE
:102E7000C8028EE8E82E84E0F82E01E010E093E02E
:102E8000492E512C22E0622E712CCE014C960E94CC
:102E9000651188A199A1892BE1F161EF71E08C8D19
:102EA0009D8D0E94941F892BA1F582E390E00E94E2
:102EB000ED0862E370E080E090E00E94C80282E3E7
:102EC00090E00E94ED0862E370E080E090E00E94F4
:102ED000C80282E390E00E94ED0880E00E944F0A61
:102EE00064EF71E08AE996E00E942B0B81E00E947A
:102EF0004F0A65E072E08AE996E00E942B0B10927F
:102F0000DA031092D90368E873E180E090E00E9450
:102F1000C8028091D9039091DA03009709F0D1C0DB
:102F200080E00E944F0A66E172E08AE996E00E9422
:102F30002B0B81E00E944F0A67E272E08AE996E07B
:102F40000E942B0B61E872E08FED93E00E942B0B47
:102F50002AE04BE750E060E070E08FED93E00E94E4
:102F6000AC0A68E372E08FED93E00E949D0A80E076
:102F70000E944F0ACE010A960E94651161E070E03E
:102F800080E090E00E94C8028A859B85009711F43A
:102F900085EA91E0FA82E9829C838B83FE82ED824E
:102FA0008AE08F83CE0101960E94AB0B6C018E8567
:102FB0009F85892BD9F1C6010E94570B4C016BEC00
:102FC00071E0C6010E94330BB12CA12C009721F0B7
:102FD00004960E94500D5C01F60180819181892B3D
:102FE00009F46AC0F8EC8F16910409F060C080E023
:102FF0000E944F0A6BE372E08AE996E00E942B0B75
:1030000081E00E944F0AB5018AE996E00E942B0BED
:103010001093DA030093D90368EB7BE080E090E043
:103020000E94C8021092950410929404CE010A9650
:103030000E94980A65E070E080E090E00E94C8027B
:10304000CE014C960E94980A80E090E0892B09F40A
:103050001CCF0E944C01882309F40BCF0E94000072
:1030600008CF81110E94EF01E12FF0E0EE0FFF1F6A
:10307000E358FF4FA591B491EC910E2309F475CE5E
:103080004FE062E08AE896E00E94170413E062E3F2
:1030900070E080E090E00E94C80262E08AE896E07A
:1030A0000E94F90384FF7ACE115089F777CE70928F
:1030B000DA036092D903BACFCE010A960E94980A29
:1030C00041CF8130910509F0F7C080E00E944F0A9E
:1030D0006FE472E08AE996E00E942B0B81E00E9487
:1030E0004F0A65E672E08AE996E00E942B0B8AE8B7
:1030F00096E00E949905882309F4A2CF8AE896E019
:103100000E94B203882309F49BCF65EA71E0CE01E7
:1031100040960E945011B12C80918C06B81608F090
:1031200042C08B2D90E09C012657394F6901F9016F
:10313000838166E372E0803110F462ED71E0CE01CC
:1031400001960E9450114D815E8169817A81CE0184
:1031500040960E949C0DCE0101960E94980AF601AD
:1031600083811B861A861D861C861F861E8640E16B
:10317000BE016F5F7F4F90E00E94241BBE016F5F16
:103180007F4FCE010A960E9446114E855F856A8563
:103190007B85CE0140960E949C0DCE010A960E942E
:1031A000980AB394B9CFC888D988C114D10469F0FA
:1031B000F6018081882349F0082E000C990B0E94AB
:1031C000831FF60181936F01F3CF2C893D8941E084
:1031D00050E0BE01605F7F4FCE0101960E941B143C
:1031E0008091880490918904009709F44EC0698108
:1031F0007A816115710509F446C040918A045091A5
:103200008B042D813E8142175307E8F10E949D1FD8
:103210008D819E8190938D0480938C041E821D82EB
:10322000CE0101960E94980A6BE772E08FED93E061
:103230000E942B0B2C893D8941E050E0BE01605F6C
:103240007F4FCE0101960E941B14BE016F5F7F4F1E
:103250008FED93E00E949400CE0101960E94980A9F
:1032600060E872E08FED93E00E942B0B6BE770E05B
:103270008FED93E00E94210B5092DA034092D90324
:10328000CE014096D5CE0E943D1E89819A819093B1
:103290008904809388048B819C8190938B04809314
:1032A0008A048D819E8190938D0480938C041A8270
:1032B00019821C821B82B2CF82309105C9F480E052
:1032C0000E944F0A68E872E08AE996E00E942B0BA0
:1032D00081E00E944F0A61E872E08AE996E00E946C
:1032E0002B0B6BE770E08AE996E00E94210BFFCF81
:1032F000039709F09FCE80E00E944F0A6DE972E0CB
:103300008AE996E00E942B0B81E00E944F0A67E257
:1033100072E08AE996E00E942B0B6BE772E08FED7A
:1033200093E00E942B0B68E874E08FED93E00E941D
:10333000940060E872E08FED93E00E942B0B6BE746
:1033400070E08FED93E00E94210B10929504109293
:103350009404CE0146960E9465118E899F8900973C
:1033600011F485EA91E0FA82E9829C838B83FE82E4
:10337000ED828AE08F83CE0101960E94AB0B6C0137
:1033800061E070E080E090E00E94C8028A8D9B8D31
:10339000892B09F471C0C6010E94570B883C910526
:1033A00009F06DC0B601CE0101960E94B71350E03E
:1033B00040E0BE016F5F7F4FCE0140960E946714D0
:1033C000CE0101960E94980AB601CE0101960E9494
:1033D000B71341E050E0BE016F5F7F4FCE010A9608
:1033E0000E946714CE0101960E94980A80E00E9414
:1033F0004F0A67E272E08AE996E00E942B0B81E0B7
:103400000E944F0A67E272E08AE996E00E942B0B65
:103410008CEB92E00E94ED0880E00E944F0ABE0112
:10342000605F7F4F8AE996E00E94940081E00E94ED
:103430004F0ABE01665F7F4F8AE996E00E949400C2
:1034400068EB7BE080E090E00E94C8021093DA0312
:103450000093D903109295041092940465EA71E0E8
:1034600088E894E00E944611CE010A960E94980ACC
:10347000CE0140960E94980ACE014696D9CD813061
:10348000910509F070C0B601CE010A960E94B713EB
:1034900080E00E944F0A67E272E08AE996E00E94AB
:1034A0002B0B81E00E944F0A67E272E08AE996E006
:1034B0000E942B0B82E390E00E94ED0862E370E033
:1034C00080E090E00E94C80282E390E00E94ED0854
:1034D00066E970E080E090E00E94C80284E690E037
:1034E0000E94ED0880E00E944F0A6EEA72E08AE9CD
:1034F00096E00E942B0B81E00E944F0A1A821982EB
:103500001C821B821E821D826A857B856115710566
:1035100031F04E855F85CE0101960E942511CE01C6
:1035200001960E94A513BC018AE996E00E949400CE
:10353000CE0101960E94980A60E177E280E090E077
:103540000E94C8021093DA030093D90310929504E5
:103550001092940465EA71E088E894E00E944611B4
:10356000CE010A9687CF82309105A9F5B601CE012A
:103570000A960E94B71380E00E944F0A67E272E049
:103580008AE996E00E942B0B81E00E944F0A67E2D5
:1035900072E08AE996E00E942B0B84E690E00E949C
:1035A000ED0866E970E080E090E00E94C80284E6E1
:1035B00090E00E94ED0866E970E080E090E00E94F3
:1035C000C80284E690E00E94ED0880E00E944F0A65
:1035D0006FEB72E08CCF8439914009F04DCF80E0E1
:1035E0000E944F0A66ED72E08AE996E00E942B0B7A
:1035F00081E00E944F0A66EE72E08AE996E00E943E
:103600002B0B84EF91E00E94ED0862E370E080E014
:1036100090E00E94C80284EF91E00E94ED0868EB00
:103620007BE080E090E00E94C80265EA71E088E8F3
:1036300094E00E9446111093DA030093D9031CCF43
:1036400088E894E00C94980ABB27FB015527AA2729
:10365000880F991FAA1FA41710F0A41B839550511F
:10366000B9F7A05DAA3308F0A95DA193009779F797
:10367000B111B1931192CB010C943E1BDC01FC0102
:10368000672F71917723E1F7329704C07C916D9396
:1036900070836291AE17BF07C8F308950E94901B14
:1036A00008F481E00895E89409C097FB3EF49095F2
:1036B0008095709561957F4F8F4F9F4F9923A9F00B
:1036C000F92F96E9BB279395F6958795779567959A
:1036D000B795F111F8CFFAF4BB0F11F460FF1BC0DE
:1036E0006F5F7F4F8F4F9F4F16C0882311F096E971
:1036F00011C0772321F09EE8872F762F05C066231F
:1037000071F096E8862F70E060E02AF09A95660FD7
:10371000771F881FDAF7880F9695879597F9089590
:10372000990F0008550FAA0BE0E8FEEF16161706D2
:10373000E807F907C0F012161306E407F50798F03A
:10374000621B730B840B950B39F40A2661F0232B53
:10375000242B252B21F408950A2609F4A140A695CF
:103760008FEF811D811D08950E94C71B0C94381C8A
:103770000E942A1C38F00E94311C20F0952311F081
:103780000C94211C0C94271C11240C946C1C0E947A
:10379000491C70F3959FC1F3950F50E0551F629F30
:1037A000F001729FBB27F00DB11D639FAA27F00D9A
:1037B000B11DAA1F649F6627B00DA11D661F829FC1
:1037C0002227B00DA11D621F739FB00DA11D621FA6
:1037D000839FA00D611D221F749F3327A00D611DC3
:1037E000231F849F600D211D822F762F6A2F1124A5
:1037F0009F5750409AF0F1F088234AF0EE0FFF1FD8
:10380000BB1F661F771F881F91505040A9F79E3F2E
:10381000510580F00C94211C0C946C1C5F3FE4F368
:10382000983ED4F3869577956795B795F795E79584
:103830009F5FC1F7FE2B880F911D9695879597F98D
:10384000089597F99F6780E870E060E008959FEF22
:1038500080EC089500240A94161617061806090627
:10386000089500240A9412161306140605060895F6
:10387000092E0394000C11F4882352F0BB0F40F47E
:10388000BF2B11F460FF04C06F5F7F4F8F4F9F4FBE
:10389000089557FD9058440F551F59F05F3F71F040
:1038A0004795880F97FB991F61F09F3F79F08795A7
:1038B0000895121613061406551FF2CF4695F1DF30
:1038C00008C0161617061806991FF1CF86957105C0
:1038D000610508940895E894BB2766277727CB01F4
:1038E00097F908952F923F924F925F926F927F9235
:1038F0008F929F92AF92BF92CF92DF92EF92FF9200
:103900000F931F93CF93DF93CDB7DEB7CA1BDB0BAB
:103910000FB6F894DEBF0FBECDBF09942A88398850
:1039200048885F846E847D848C849B84AA84B98457
:10393000C884DF80EE80FD800C811B81AA81B98163
:10394000CE0FD11D0FB6F894DEBF0FBECDBFED0177
:1039500008955058BB27AA270E94C11C0C94381CFC
:103960000E942A1C38F00E94311C20F039F49F3F3D
:1039700019F426F40C94271C0EF4E095E7FB0C9444
:10398000211CE92F0E94491C58F3BA1762077307DC
:103990008407950720F079F4A6F50C946B1C0EF4BF
:1039A000E0950B2EBA2FA02D0B01B90190010C014F
:1039B000CA01A0011124FF27591B99F0593F50F467
:1039C000503E68F11A16F040A22F232F342F4427BF
:1039D000585FF3CF469537952795A795F0405395B7
:1039E000C9F77EF41F16BA0B620B730B840BBAF087
:1039F0009150A1F0FF0FBB1F661F771F881FC2F7F2
:103A00000EC0BA0F621F731F841F48F48795779505
:103A10006795B795F7959E3F08F0B0CF9395880FBF
:103A200008F09927EE0F9795879508950E941D1D20
:103A30006894B1110C946C1C08950E94511C88F07C
:103A40009F5798F0B92F9927B751B0F0E1F0660F62
:103A5000771F881F991F1AF0BA95C9F714C0B130A3
:103A600091F00E946B1CB1E008950C946B1C672FC1
:103A7000782F8827B85F39F0B93FCCF386957795D2
:103A80006795B395D9F73EF49095809570956195BB
:103A90007F4F8F4F9F4F08950E94901B08F48FEF28
:103AA000089597FB072E16F4009407D077FD09D0F0
:103AB0000E948D1D07FC05D03EF4909581959F4F87
:103AC0000895709561957F4F0895A1E21A2EAA1B63
:103AD000BB1BFD010DC0AA1FBB1FEE1FFF1FA217BE
:103AE000B307E407F50720F0A21BB30BE40BF50BBB
:103AF000661F771F881F991F1A9469F76095709544
:103B0000809590959B01AC01BD01CF010895EE0F0A
:103B1000FF1F0590F491E02D0994AA1BBB1B51E1F6
:103B200007C0AA1FBB1FA617B70710F0A61BB70B2D
:103B3000881F991F5A95A9F780959095BC01CD01D2
:103B400008950F931F93CF93DF938230910510F464
:103B500082E090E0E091A806F091A90630E020E034
:103B6000B0E0A0E0309799F42115310509F44AC07E
:103B7000281B390B24303105D8F58A819B816115CA
:103B8000710589F1FB0193838283FE0111C040819D
:103B900051810281138148175907E0F048175907EE
:103BA00099F4109761F012960C93129713961C9348
:103BB0003296CF01DF91CF911F910F91089500931D
:103BC000A8061093A906F4CF2115310551F042172C
:103BD000530738F0A901DB019A01BD01DF01F801AB
:103BE000C1CFEF01F9CF9093A9068093A806CDCF5E
:103BF000FE01E20FF31F8193919322503109398323
:103C00002883D7CF2091A6063091A706232B41F415
:103C100020910301309104013093A7062093A6065A
:103C200020910101309102012115310541F42DB798
:103C30003EB74091050150910601241B350BE091E0
:103C4000A606F091A706E217F307A0F42E1B3F0B80
:103C50002817390778F0AC014E5F5F4F24173507FE
:103C600048F04E0F5F1F5093A7064093A60681931E
:103C700091939FCFF0E0E0E09CCFCF93DF9300974C
:103C8000E9F0FC01329713821282A091A806B0914C
:103C9000A906ED0130E020E01097A1F420813181E8
:103CA000820F931F2091A6063091A7062817390787
:103CB00009F061C0F093A706E093A606DF91CF91CB
:103CC0000895EA01CE17DF07E8F54A815B819E017E
:103CD00041155105B1F7E901FB83EA8349915991F7
:103CE000C40FD51FEC17FD0761F480819181029606
:103CF000840F951FE90199838883828193819B8337
:103D00008A83F0E0E0E012968D919C9113970097E2
:103D1000B9F52D913C911197CD010296820F931F19
:103D20002091A6063091A7062817390739F6309753
:103D300051F51092A9061092A806B093A706A09379
:103D4000A606BCCFD383C28340815181840F951FC7
:103D5000C817D90761F44E5F5F4F88819981480F7A
:103D6000591F518340838A819B81938382832115CC
:103D7000310509F0B0CFF093A906E093A8069ECFD5
:103D8000FD01DC01C0CF13821282D7CFB0E0A0E0EA
:103D9000ECECFEE10C94741C8C01009751F4CB0107
:103DA0000E94A11D8C01C801CDB7DEB7E0E10C94E3
:103DB000901CFC01E60FF71F9C0122503109E2170D
:103DC000F30708F49DC0D901CD91DC911197C61776
:103DD000D70798F0C530D10530F3CE010497861788
:103DE000970708F3C61BD70B2297C193D1936D9306
:103DF0007C93CF010E943D1ED6CF5B01AC1ABD0A59
:103E00004C018C0E9D1EA091A806B091A906512CC4
:103E1000412CF12CE12C109731F58091A606909160
:103E2000A7068815990509F05CC04616570608F0E4
:103E300058C08091010190910201009741F48DB723
:103E40009EB74091050150910601841B950BE81720
:103E5000F90708F055C0F093A706E093A606F9010C
:103E600071836083A0CF8D919C91119712966C9075
:103E7000129713967C901397A815B90559F56C0104
:103E800042E0C40ED11CCA14DB0420F1AC014A1973
:103E90005B09DA011296159780F062827382518372
:103EA0004083D9016D937C93E114F10471F0D70143
:103EB0001396FC93EE93129776CF22968C0F9D1F4C
:103EC000F90191838083F301EFCFF093A906E0938A
:103ED000A80669CF4816590608F42C017D01D301C4
:103EE0009ACFCB010E94A11D7C01009749F0AE0141
:103EF000B8010E948B1FC8010E943D1E870153CF4D
:103F000010E000E050CF9111089581568A5108F4D5
:103F1000805285580895FB01DC0102C001900D928A
:103F200041505040D8F70895FB01DC018D9101907C
:103F300080190110D9F3990B0895FB01DC01019060
:103F40000D920020E1F7089510E0C3E6D0E004C030
:103F5000FE010E94871D2196C436D107C9F7F89447
:023F6000FFCF91
:103F6200FF0000AA06800000004000140054000078
:103F720000803FCDCCCC3D6F12833A95BFD6337DC6
:103F82001D9026B3CE010CCDCCCC3D0AD7233C17D5
:103F9200B7D13877CC2B329595E6241FB14F0A0062
:103FA2000020410000C84200401C4620BCBE4CCA52
:103FB2001B0E5AAEC59D74000000008201A200CF04
:103FC20000CF014001DE00320100000000830356F1
:103FD20003E6072C034F033C032D0300000000FC03
:103FE200059905B20300000000800AA200E60793CB
:103FF2000000000000D80922225C5C6208660C6E98
:104002000A720D740900636F6465006E756C6C0052
:10401200747275650066616C7365004E614E00498D
:104022006E66696E69747900652D00726573756CD0
:104032007400203000426F6F74696E672E2E2E005E
:10404200546572687562756E6721202020202020D9
:10405200004443004B6F6E656B7369205365727643
:10406200657220200054657270757475732E20205D
:1040720020202020200043656B20706572616E67EE
:104082006B61742E2E2E0020202020202020202044
:1040920020202020202020000D0A00546572646137
:1040A200667461723A2020202020202020200054B3
:1040B200656D70656C6B616E204B6172747520204A
:1040C20020202020004D616861736973776120416F
:1040D2006E64612E2E2E20202020005549443D0082
:1040E2003B44455649443D00444556494345204ECC
:1040F2004F2052454720202020202020004D656D72
:1041020062616361204B61727475202020004365F7
:104112006B205765623A2020202020202020005466
:10412200616D626168206B65205765623A202020CC
:104132002020202020004B544D20746964616B20A4
:1041420020202020200074657264616674617221EF
:06415200202020202000C7
:00000001FF
