:100000000C9464000C948C000C948C000C948C0068
:100010000C948C000C948C000C948C000C945A1151
:100020000C948C000C948C000C948C000C948C0020
:100030000C948C000C948C000C948C000C948C0010
:100040000C940E120C948C000C94DC110C94B611D0
:100050000C948C000C948C000C948C000C948C00F0
:100060000C948C000C948C000000000025002800EB
:100070002B000200000000240027002A00000000DE
:1000800000230026002900040404040404040402DC
:100090000202020202030303030303010204081025
:1000A00020408001020408102001020408102000F2
:1000B0000000080002010000030407000000000027
:1000C0000000000077132D1911241FBECFEFD8E0D8
:1000D000DEBFCDBF25E0ACEDB2E001C01D92AC3D6E
:1000E000B207E1F712E0A0E0B1E0ECE7FBE302C009
:1000F00005900D92AC3DB107D9F710E0C3E6D0E012
:1001000004C02197FE010E94941BC236D107C9F793
:100110000E94E1130C94B11D0C9400008CBD9DBD98
:1001200008950895DB0114964D915C9115976D919A
:100130007C91DC01ED91FC910280F381E02D09942A
:10014000AF92BF92CF92DF92EF92FF920F931F93E5
:10015000CF93DF936C017B018B01040F151FEB0123
:100160005E01AE18BF08C017D10759F06991D601DA
:10017000ED91FC910190F081E02DC6010995892B4C
:1001800079F7C501DF91CF911F910F91FF90EF900B
:10019000DF90CF90BF90AF900895FC01538D448DB8
:1001A000252F30E0842F90E0821B930B541710F022
:1001B000CF96089501970895FC01918D828D98172F
:1001C00061F0A28DAE0FBF2FB11D5D968C91928D07
:1001D0009F5F9F73928F90E008958FEF9FEF089538
:1001E0002FB7F89480910D0390910E03A0910F0307
:1001F000B09110032FBF8093190390931A03A0931B
:100200001B03B0931C0381E193E00E94DC0097FF85
:1002100026C02FB7F89480910D0390910E03A09102
:100220000F03B09110032FBF4091190350911A038F
:1002300060911B0370911C03841B950BA60BB70BDD
:1002400040911503509116036091170370911803A4
:1002500084179507A607B707B0F28FEF9FEF0895B1
:10026000FC01918D828D981731F0828DE80FF11D80
:10027000858D90E008958FEF9FEF0895FC01918D9B
:10028000228D892F90E0805C9F4F821B91098F7394
:100290009927089581E193E00E943E0121E0892B96
:1002A00009F420E0822F089580E090E0892B29F066
:1002B0000E944A0181110C9400000895FC01A48D54
:1002C000A80FB92FB11DA35ABF4F2C91848D90E078
:1002D00001968F739927848FA689B7892C93A0895B
:1002E000B1898C91837080648C93938D848D9813E5
:1002F00006C00288F389E02D80818F7D8083089578
:10030000EF92FF920F931F93CF93DF93EC0181E065
:10031000888F9B8D8C8D98131AC0E889F98980810C
:1003200085FF15C09FB7F894EE89FF896083E8893F
:10033000F98980818370806480839FBF81E090E031
:10034000DF91CF911F910F91FF90EF900895F62EBE
:100350000B8D10E00F5F1F4F0F731127E02E8C8D58
:100360008E110CC00FB607FCFACFE889F98980819D
:1003700085FFF5CFCE010E945E01F1CFEB8DEC0F32
:10038000FD2FF11DE35AFF4FF0829FB7F8940B8FBA
:10039000EA89FB8980818062CFCFCF93DF93EC0124
:1003A000888D8823B9F0AA89BB89E889F9898C915D
:1003B00085FD03C0808186FD0DC00FB607FCF7CF19
:1003C0008C9185FFF2CF808185FFEDCFCE010E9419
:1003D0005E01E9CFDF91CF910895833081F028F459
:1003E000813099F08230A9F008958730A9F08830E3
:1003F000C9F08430B1F4809180008F7D03C080917A
:1004000080008F7780938000089584B58F7784BDB6
:10041000089584B58F7DFBCF8091B0008F77809356
:10042000B00008958091B0008F7DF9CF1F93CF93D6
:10043000DF93282F30E0F901E155FF4F8491F90156
:10044000E556FF4FD491F901E957FF4FC491CC23F2
:10045000A9F0162F81110E94ED01EC2FF0E0EE0FB4
:10046000FF1FE859FF4FA591B4918FB7F894EC9115
:10047000111108C0D095DE23DC938FBFDF91CF919F
:100480001F910895DE2BF8CF9091000189130BC0C6
:10049000E2E7F0E0E4919FEF90930001E13049F052
:1004A00028F0E23061F060E00C94160210926E00C9
:1004B000FACF90916F009D7F90936F00F4CF909151
:1004C00070009D7F9093700091E09093B0009091A8
:1004D000B100987F94609093B1001092B300E3CF85
:1004E000CF93DF9390E0FC01E556FF4F24918957AD
:1004F0009F4FFC0184918823D1F090E0880F991FD1
:10050000FC01ED58FF4FA591B491FC01E859FF4F54
:10051000C591D49161110EC09FB7F8948C91E22FD0
:10052000E0958E238C932881E223E8839FBFDF919F
:10053000CF9108958FB7F894EC91E22BEC938FBF95
:10054000F6CF3FB7F8948091FF0290910003A091FD
:100550000103B091020326B5A89B05C02F3F19F0F7
:100560000196A11DB11D3FBFBA2FA92F982F882733
:10057000BC01CD01620F711D811D911D42E0660F0E
:10058000771F881F991F4A95D1F708958F929F92E0
:10059000AF92BF92CF92DF92EF92FF926B017C01FC
:1005A0000E94A1024B015C01C114D104E104F104D9
:1005B000B9F00E94A102681979098A099B09683E6D
:1005C00073408105910580F321E0C21AD108E1084A
:1005D000F10888EE880E83E0981EA11CB11CE4CFC0
:1005E000FF90EF90DF90CF90BF90AF909F908F9053
:1005F0000895BC016E5F7F4FDC01ED91FC9101908D
:10060000F081E02D40E0099591E0811190E0892F83
:10061000089508958EBD00000DB407FEFDCF8EB580
:100620000895DF92EF92FF920F931F93CF93DF9382
:100630007C01062FD42E152F83E590E00E948E00BA
:1006400060E0F70186850E94160282E10E940A039B
:10065000CD2DD12F0C0F1D2F111DC017D10721F04B
:1006600089910E940A03F9CF61E0F7018685DF9145
:10067000CF911F910F91FF90EF90DF900C94160295
:100680001F93CF93DF93EC01162F83E590E00E9438
:100690008E0060E08E850E941602812F80680E9485
:1006A0000A0380E00E940A03182F61E08E850E94F1
:1006B0001602812FDF91CF911F9108950F931F9301
:1006C000CF93DF93EC01062F142F83E590E00E9477
:1006D0008E0060E08E850E941602802F0E940A0321
:1006E000812F0E940A0361E08E85DF91CF911F91D7
:1006F0000F910C941602CF92DF92EF92FF920F931C
:100700001F93CF93DF93EC016B01142F790140E02D
:1007100062E00E945E0344E06AE0CE010E945E0354
:1007200040E864E1CE010E945E03A601612FCE0184
:100730000E94110343E062E0CE010E945E0308E8DC
:1007400013E16AE0CE010E94400382FF1BC040E03B
:1007500062E0CE010E945E0364E4CE010E94400389
:10076000F701808362E4CE010E944003F701818398
:1007700080E0DF91CF911F910F91FF90EF90DF907C
:10078000CF90089501501109E1F683E0F2CF3F9236
:100790004F925F926F927F928F929F92AF92BF9291
:1007A000CF92DF92EF92FF920F931F93CF93DF933D
:1007B00000D0CDB7DEB74C012B01D42E390180E03B
:1007C000E114F10411F0F7018081BC2CB29490EF98
:1007D000B922B80E40E062E0C4010E945E034FE718
:1007E00068E0C4010E945E0340E864E1C4010E9425
:1007F0005E03A2016D2DC4010E9411034B2D6AE11D
:10080000C4010E945E034CE062E0C4010E945E03EA
:100810006AE1C4010E944003482F40686AE1C401B4
:100820000E945E0320ED422E27E0522E68E0C401B4
:100830000E944003982F907309F0B6C080FD04C059
:10084000F1E04F1A510891F783E094C061147104EC
:1008500009F46DC00115110509F469C064E1C40112
:100860000E944003B82EF80180818B1508F496C0D1
:10087000B082BB20E1F183E590E00E948E0060E051
:10088000F40186850E941602BA9482E90E940A0346
:10089000CC20B1F08FEF90E09C0102C0220F331FFB
:1008A000CA94E2F7690182E90E940A039C2D90959F
:1008B000F301208192238C21982B9083CC24C39424
:1008C00023014C0C511CCB1440F482E90E940A0312
:1008D000F20181932F01C394F6CF80E00E940A03B6
:1008E000F201808361E0F40186850E94160268E1CE
:1008F000C4010E9440038770E114F10411F0F70174
:10090000808333FC4DC06114710409F44BC00115A0
:10091000110509F447C0AA2009F444C0F801408138
:10092000413039F4843009F049C08FEF23C080E0B2
:10093000E8CF423008F442C0811140C042509E01CD
:100940002F5F3F4FB301C4010E947B03811112C08E
:10095000F8019081690E711CF30132972081998111
:1009600029132CC0F1E06F1A7108F30120819A81DC
:10097000291324C00F900F90DF91CF911F910F91F9
:10098000FF90EF90DF90CF90BF90AF909F908F90AF
:100990007F906F905F904F903F90089584E0EACFF2
:1009A00082E0E8CF80E0E6CF6CE0C4010E94400323
:1009B000382E837109F44ACF81E0DCCF87E0DACFAB
:1009C0008F929F92AF92CF92EF92FF920F931F93CD
:1009D000CF93DF9300D000D01F92CDB7DEB74C018C
:1009E00082E08D8340E064E2C4010E945E0340E047
:1009F00066E2C4010E945E0346E268E4C4010E940C
:100A00005E0386E28B838D818230D8F16CE1C40174
:100A10000E944003482F4F776CE1C4010E945E039F
:100A200087E08C83A12CC12CCE0104967C018E0121
:100A30000B5F1F4F9E012F5F3F4F41E0BE016D5F77
:100A40007F4FC4010E94C703982F811117C08D8169
:100A50008230B9F48C81811114C081E00F900F9025
:100A60000F900F900F90DF91CF911F910F91FF90FA
:100A7000EF90CF90AF909F908F90089581E092304B
:100A800069F380E0EBCF2F923F924F925F926F928B
:100A90007F928F929F92AF92BF92CF92DF92EF920E
:100AA000FF920F931F93CF93DF93CDB7DEB72D97B0
:100AB0000FB6F894DEBF0FBECDBF16E0413508F08B
:100AC0004AC1342E3B014C016CE10E944003482F87
:100AD0004F776CE1C4010E945E0383E98983332070
:100AE00029F081E0F3019081953008F480E0222420
:100AF0002394B12C9B2D990F990F990FD32CD91AB0
:100B0000D7FCD12C32E0882319F098E89B8333E09E
:100B100021E09D2D977009F420E09D2D95959595E8
:100B20009595290FC9F094E0811193E0291708F4F5
:100B3000922FEB2DF0E03196E60DF71D232F41911A
:100B4000A1E0B0E0AC0FBD1FA20FB11D4C932F5F11
:100B5000422F431B491798F3882311F0F8E0DF0E6A
:100B60008FE18D150CF082C090E79A838B819C8178
:100B700089279D8189279E8189278F839E01285FF0
:100B80003F4F47E0BE016F5F7F4FC4010E947B0370
:100B9000182F8111E0C01A86E3E0EB87DC86CE01D6
:100BA00007962C0199E09D87CA844C2D4295407F81
:100BB0004C0D6AE1C4010E945E03A12CCE010A968D
:100BC0007C018E01055F1F4F92014D85BE016F5F55
:100BD0007F4FC4010E94C703182F823009F065C0FF
:100BE0006CE1C4010E94400385FDB5C08F7109F41A
:100BF00080E2282F30E04D2DDD0C550B42175307B6
:100C00000CF09DC0D82EE82FE595E595E595EF5FB2
:100C1000982F977081E009F480E0E80F81E090E080
:100C20008C0F9D1F8E0F911DFC01215031092770E3
:100C3000332781E090E002C0880F991F2A95E2F7E0
:100C40009C018081822B80838BCF85E9898333202F
:100C500031F081E0F3019081983008F04BCF80E0D3
:100C600049CF87E9898326E0B22EF9CF9D2D977071
:100C70009A878D2D8595859585958E5F282F229550
:100C8000207F290F2A8321E0911101C020E0280F45
:100C90002D8744244394512C4C0E5D1E480E511C4C
:100CA000E9E0E81BEB87DC867FCF811154C080E24E
:100CB000D82E9C8590320CF457CF8B81883809F060
:100CC00040C083E093E0EB2DF0E03196E60DF71D98
:100CD000980FA1E0B0E0AC0FBD1FA80FB11D2C9183
:100CE00021938F5F8913F5CFBB84E3E0BE124DC023
:100CF0008A8581114AC09E012D5F3F4F41E0B201BC
:100D0000C4010E947B03182F811125C09B81F20131
:100D1000818198133CC09C818281981338C0808166
:100D200082FF12C02394F2E02F1609F48ECF83E0E5
:100D3000281609F496CF91E0291609F4CECE15E0D5
:100D40000AC082E094E0BFCFF3018387822D880F31
:100D5000820D8F5F8083812F2D960FB6F894DEBFB2
:100D60000FBECDBFDF91CF911F910F91FF90EF90FC
:100D7000DF90CF90BF90AF909F908F907F906F90BB
:100D80005F904F903F902F90089511E0E4CF17E0CF
:100D9000E2CF90E080E00895FC01A081B1818C91C8
:100DA0008D3021F03CF489508230A8F51196B18342
:100DB000A083F3CF8032D1F38F3209F008951196DA
:100DC0008C9111978A3219F08F32C1F008951196E3
:100DD000B183A083A081B181CD01019691838083ED
:100DE00011968C9111978823B1F08A3299F7129657
:100DF0008C9112978F3271F71396D9CFA081B18160
:100E0000CD0101969183808311968C91882319F0EE
:100E10008A30A1F7C2CF08951F93CF93DF93EC01DF
:100E2000162F0E94CC06E881F9818081181308C032
:100E30003196F983E88381E0DF91CF911F91089586
:100E400080E0FACFEF92FF920F931F93CF93DF933F
:100E50008C01DC011496CD91DC91EA80FB808E81BF
:100E60009F81E80EF91EC80102960E94CC06D801A7
:100E70001296ED91FC918081873219F0823209F04F
:100E800042C03196D8011396FC93EE931297D80185
:100E90001296ED91FC9113979081992309F462C009
:100EA0009F012F5F3F4F13963C932E931297891704
:100EB00009F458C09C3599F49181A1E8B1E02C91D6
:100EC000222321F092131DC011969C91992309F4BD
:100ED00049C03296D8011396FC93EE9312974E8137
:100EE0005F819A012F5F3F4F6C817D81621773078D
:100EF00070F2EA81FB81E40FF51F3F832E8390831C
:100F0000C6CF1296DCCF80330CF444C08A3324F071
:100F10008F3504F18B3704F5F801228133812F5F7F
:100F20003F4F338322834E815F819A012F5F3F4F72
:100F30006C817D816217730738F0EA81FB81E40FD1
:100F4000F51F3F832E838083D8011296ED91FC918B
:100F50008081D9CF8134F4F08B35F4F293ED980F82
:100F60009230D0F22E813F81C90101964C815D8182
:100F70004817590790F0EA81FB81E20FF31F9F8326
:100F80008E831082C701DF91CF911F910F91FF9047
:100F9000EF9008958B3211F7BFCFF12CE12CF2CFF7
:100FA0000F931F93CF938C0180910001883071F0D3
:100FB0008F3F19F1B801110F880B990B0E94C602DF
:100FC00088E0CF911F910F910C944402E2E7F0E08A
:100FD000C491C7FDEFCF61E088E00E947002CC238E
:100FE00009F479C0C23009F08DC08091B100887FCA
:100FF00084608093B10081EBABC088E080930001F6
:10100000E2E7F0E0C491CF3FA9F2C13021F150F006
:10101000C23009F43EC0C7FDCDCF61E088E00E9438
:101020007002E0CF14BC15BC84B5826084BD85B568
:10103000816085BDEFE8F0E0E491F0E0EE0FFF1F86
:10104000E859FF4F85919491E3EAF0E0E491E09351
:10105000F502C0E0C0CF1092800010928100809114
:1010600081008860809381008091810081608093FD
:101070008100EFE8F0E0E491F0E0EE0FFF1FE859A7
:10108000FF4F85919491E3EAF0E0E491E093F4025C
:10109000A2CF1092B0001092B1008091B000826097
:1010A0008093B0008091B10081608093B100EFE83F
:1010B000F0E0E491F0E0EE0FFF1FE859FF4F85915B
:1010C00094919093040380930303E3EAF0E0E491A6
:1010D000E093050380CF85B5887F836085BD81EB74
:1010E00087BD8FEF9FEFDC018093FA029093FB02A4
:1010F000A093FC02B093FD0280916E008260809309
:101100006E0058CFC130E9F480918100887F816002
:101110008093810083EA9CE2909389008093880009
:101120008FEF9FEFDC018093F6029093F702A0937C
:10113000F802B093F90280916F00826080936F0093
:1011400039CFC23021F0C11135CF83EAC9CF83EA4C
:101150008093B3008FEF9FEFDC01809306039093A1
:101160000703A0930803B093090380917000826085
:10117000809370001FCFFC0186819781680F791FD3
:10118000248135812617370738F022813381820F79
:10119000931F77836683089590E080E0089580919F
:1011A000EC0281110BC01092E9021092E802109239
:1011B000EB021092EA0281E08093EC0288EE92E06A
:1011C00008958091E00281110BC01092DD0210920F
:1011D000DC021092DF021092DE0281E08093E002D6
:1011E0008CED92E00895DB01109749F0ED91FC91B0
:1011F00011970190F081E02DBC01CD01099490E0A0
:1012000080E00895CF93DF93EC0160E08E810E942F
:10121000160261E08E810E94160260E08E810E94BB
:1012200016028BE891E00197F1F7DF91CF910895D5
:10123000CF92DF92EF92FF920F931F93CF93DF93A2
:101240006C017C0187E0E80EF11CD0E0C0E0062FC5
:1012500010E0B8010C2E02C0759567950A94E2F76C
:101260006170F70181917F010E9416022196C430BE
:10127000D10579F7C601DF91CF911F910F91FF90B2
:10128000EF90DF90CF900C940209CF92DF92EF9213
:10129000FF920F931F93CF93DF93EC01F62E642FF1
:1012A0008C810E9416028D818F3F19F060E00E94B0
:1012B00016020F2D10E08F8584FF25C06E0187E098
:1012C000C80ED11CF12CE12CB8010E2C02C0759572
:1012D00067950A94E2F76170F60181916F010E94AF
:1012E0001602FFEFEF1AFF0A88E0E816F10461F733
:1012F000CE01DF91CF911F910F91FF90EF90DF9082
:10130000CF900C940209B80184E0759567958A9591
:10131000E1F7CE010E9418096F2DCE01DF91CF9128
:101320001F910F91FF90EF90DF90CF900C941809D0
:1013300040E0682F80EC95E00C944509CF93DF9353
:10134000823029F49091CF0598609093CF058093D7
:10135000D3051092D40580E48093D50580E1809375
:10136000D60580E58093D70561E08091C4050E9491
:1013700070028091C5058F3F19F061E00E947002F4
:1013800061E08091C6050E947002C0ECD5E09E012C
:10139000205C35408091CF0584FD0BC084E090E057
:1013A00021962817390744F461E08E810E9470026B
:1013B000EECF88E090E0F4CF8BE39DE00197F1F76A
:1013C00060E08091C4050E94160260E08091C6052D
:1013D0000E9416028091C5058F3F19F060E00E94BF
:1013E00016028091CF0584FD39C063E080EC95E062
:1013F0000E941809CBE4D6E4CE010197F1F763E02F
:1014000080EC95E00E9418092197F1F763E080ECE9
:1014100095E00E94180983E592E00197F1F762E0F8
:1014200080EC95E00E9418098091CF0580620E94AF
:10143000980984E08093D0058CE00E94980981E0AF
:101440000E9498098BE39FE10197F1F782E0809376
:10145000D10586E0DF91CF910C94980980620E94BB
:1014600098098BE496E40197F1F78091CF058062AB
:101470000E94980983E592E00197F1F78091CF05EA
:1014800080620E949809D0CF9091D305891710F0FF
:101490008FEF890FE82FF0E0E054FA4F84898068DD
:1014A0000C94980941E00E94450981E090E008957C
:1014B000CF93DF93EC0188819981009711F00E940E
:1014C0004A1C198218821D821C821B821A82DF919B
:1014D000CF910895FC01808191810C944A1CFB01FD
:1014E00001900020E9F73197AF01461B570BDC0153
:1014F000ED91FC910280F381E02D09948F929F92EF
:10150000AF92BF92EF92FF920F931F93CF93DF930F
:10151000CDB7DEB7A1970FB6F894DEBF0FBECDBF33
:101520007C01FA01CB0119A2223008F42AE08E01D5
:101530000F5D1F4F822E912CB12CA12CBF01A50154
:1015400094010E94721BF901CA016A300CF5605DBA
:10155000D8016E938D01232B242B252B79F790E056
:1015600080E0109721F0BD01C7010E946F0AA1968B
:101570000FB6F894DEBF0FBECDBFDF91CF911F91A4
:101580000F91FF90EF90BF90AF909F908F90089534
:10159000695CDECFCF92DF92EF92FF920F931F93A1
:1015A000CF93DF93EC016A017B01E881F98101901F
:1015B000F081E02D6DE209958C0144275527BA0191
:1015C0004C195D096E097F092AE0CE010E947E0A4E
:1015D000800F911FDF91CF911F910F91FF90EF909E
:1015E000DF90CF900895AB01770F660B770B77FDF7
:1015F0000C94CA0A2AE00C947E0A6115710511F058
:101600000C946F0A90E080E008950F931F93CF939E
:10161000DF938B01FC01C281D381209759F06A814D
:101620007B810115110519F06115710549F46017E9
:10163000710759F4CE01DF91CF911F910F91089559
:10164000C8010E94A11D892BA9F30990D881C02D42
:10165000E4CF6CE871E00E94050BFC01892B09F4D2
:1016600049C0848195818330910540F5019708F444
:1016700041C00680F781E02D3097E1F1808161E083
:1016800070E0843749F18B3279F18D3271F5319602
:1016900091E070E060E04AE0819120ED280F2A306F
:1016A00030F5469F9001479F300D1124682F880F19
:1016B000770B60537109620F731FEECF8530910570
:1016C00048F0059759F066817781808591850E9461
:1016D000231B02C066817781CB01089566817781E3
:1016E000719561957109F8CF319690E0D2CF911143
:1016F000F7CFF2CF70E060E0EFCFAF92BF92CF9222
:10170000DF92EF92FF920F931F93CF93DF9300D05E
:1017100000D000D0CDB7DEB77C01DC0116968C91ED
:10172000811104C00E94CF088C0188C08150F7014C
:101730008683C080D180B60184E090E00E94F308E7
:101740008C01009709F48CC0DC011196DC92CE92DA
:1017500013961C921E9212976701B2E0CB0ED11C19
:101760006BE7C6010E940C078823E1F26DE7C60112
:101770000E940C0781115EC0C7010E9422075C0114
:10178000892B81F26AE3C6010E940C07882351F27B
:101790001A821982BE016F5F7F4FC7010E94340C0D
:1017A000882309F4BFCFB501C8010E94050B00973B
:1017B00059F5F801608171818AE090E00E94F30898
:1017C000009741F0DC0111961C921E9215961C9216
:1017D0001E921497D8011296ED91FC91309729F43E
:1017E000F8019383828308C0F9012081318121159A
:1017F0003105D1F791838083009709F493CFDC0101
:101800001396BC92AE92129726E0FE013196DC014F
:10181000149601900D922A95E1F76DE7C6010E949A
:101820000C07811107C06CE2C6010E940C078111F0
:10183000A3CF78CFF70186818F5F8683C801269674
:101840000FB6F894DEBF0FBECDBFDF91CF911F91D1
:101850000F91FF90EF90DF90CF90BF90AF900895E1
:101860000E94CF088C0178CF8F929F92AF92BF9247
:10187000CF92DF92EF92FF920F931F93CF93DF935C
:1018800000D000D000D0CDB7DEB77C016B015C0189
:1018900082E0A80EB11CC5010E94CC06D7011296A9
:1018A000ED91FC91139780818B35E1F08B3709F432
:1018B000B2C011E0873219F0823209F010E0C7019E
:1018C0000E942207009709F485C021E030E011232F
:1018D00009F4ABC022E030E0F6013183208393832A
:1018E000828379C0F7018681811104C00E94E108DA
:1018F0008C016BC0815016968C9316978D909C909E
:10190000B40184E090E00E94F3088C01009709F490
:1019100095C0FC0191828082138212826BE5C50121
:101920000E940C07882311F36DE5C5010E940C0786
:10193000811144C01A821982BE016F5F7F4FC701B7
:101940000E94340C882391F2D8016D917C9188E03B
:1019500090E00E94F308DC01892B39F011961C926B
:101960001E9213961C921E921297F80122813381C7
:101970002115310521F4B383A28308C09C01F9012C
:10198000808191810097D1F7B183A083109709F4EA
:10199000ADCF86E0FE013196129601900D928A95A8
:1019A000E1F76DE5C5010E940C07811107C06CE2EB
:1019B000C5010E940C078111BDCF98CFD7011696A3
:1019C0008C9116978F5F16968C93F8018081918188
:1019D000892BA9F410E0812F26960FB6F894DEBF6C
:1019E0000FBECDBFDF91CF911F910F91FF90EF9070
:1019F000DF90CF90BF90AF909F908F90089586E03A
:101A000090E0D60111969C938E9313961C930E939F
:101A1000129711E0E0CFC7010E947D0BFC012081ED
:101A20003181232BB9F227E030E0D60111963C93A7
:101A30002E9313969C938E931297EBCF0E94E108FE
:101A40008C016CCF0F931F93CF93DF938C01FC011C
:101A5000C081D181C130D10559F462817381611592
:101A6000710531F081E991E00E94A11D892B59F0A7
:101A70002197229740F4F80182819381DF91CF91E1
:101A80001F910F91089590E080E0F8CF0F931F937E
:101A9000CF93DF93EC0188819981009759F02A81D7
:101AA0003B812617370730F081E0DF91CF911F91FE
:101AB0000F9108958B016F5F7F4F0E94D31C009799
:101AC00059F0998388831B830A832C813D81232BC2
:101AD00059F7FC011082E8CF80E0E7CFEF92FF9248
:101AE0000F931F93CF93DF936115710541F480E04D
:101AF000DF91CF911F910F91FF90EF9008954115C5
:101B00005105B1F07B01EC010C811D81040F151F03
:101B1000B8010E94460D882351F3288139818C81B8
:101B20009D81B701820F931F0E94AA1D1D830C8304
:101B300081E0DECF0F931F93CF93DF9300D0CDB71B
:101B4000DEB78C01DC01ED91FC918081918169838C
:101B50001A8241E050E0BE016F5F7F4F0E946E0D20
:101B6000F801828193810196938382830F900F9075
:101B7000DF91CF911F910F910895EF92FF920F93F4
:101B80001F93CF93DF93EC01E880F980D7018D910B
:101B90009C91FC01048115816115710551F0FB01D7
:101BA00001900020E9F73197AF01461B570B0E94C7
:101BB0006E0DD701ED91FC91848195812A813B8145
:101BC000820F931F801B910B9B838A83DF91CF91A0
:101BD0001F910F91FF90EF9008950F931F93CF9354
:101BE000DF93CDB7DEB766970FB6F894DEBF0FBEB2
:101BF000CDBF9C01CB011E8AFE0176960AE010E063
:101C0000B8010E945E1B805D8293CB010097C1F7F3
:101C1000BF01C9010E94BD0D66960FB6F894DEBFE4
:101C20000FBECDBFDF91CF911F910F910895FF920D
:101C30000F931F93CF93DF936115710549F461E909
:101C400071E0DF91CF911F910F91FF900C94BD0D2A
:101C50008B01EC0162E2CE010E949A0DF8016191C4
:101C60008F01662351F0EDE7F1E0F080FF2099F35A
:101C70008181681759F03296F8CF62E2CE01DF9188
:101C8000CF911F910F91FF900C949A0D6CE5CE01AE
:101C90000E949A0D6F2DDFCF2F923F924F925F924D
:101CA0006F927F928F929F92AF92BF92CF92DF926C
:101CB000EF92FF920F931F93CF93DF93CDB7DEB7D1
:101CC0006C970FB6F894DEBF0FBECDBFDC01ED916F
:101CD000FC913197E830F10508F0D5C11B018C016A
:101CE000EC58F14F0C94941BBD10B510E910C810BE
:101CF000C41067108A107C0EFC01428053806480FF
:101D00007580A3019201C301B2010E945B1961EACF
:101D100071E0811135C220E030E0A901C301B201B8
:101D20000E945B1987FF08C06DE2C1010E949A0DF5
:101D300077FA709477F8709420E030E0A901C3013D
:101D4000B2010E945B19882389F0A3019201C301AB
:101D5000B2010E94B71A9B01AC01C301B2010E94FB
:101D60005B1965EA71E0882309F40AC220E836E9C4
:101D700048E15BE4C301B2010E94591B87FD7FC0AB
:101D8000AFE4EA2EA1E0FA2EBFE1CB2EB1E0DB2ECC
:101D900017E3A12E11E0B12E00E210E0188E1F8A89
:101DA000D7015E914E913E912E917D01C301B2010A
:101DB0000E94591B87FD11C0F60124893589468987
:101DC0005789C301B2010E94C1192B013C018F89BF
:101DD000988D800F911F988F8F8B1595079594E0A4
:101DE000C91AD108AE14BF04D9F699249A9420E0F8
:101DF00030E0A901C301B2010E94591B18160CF072
:101E000045C02CEA35EC47E257E3C301B2010E941A
:101E10005B191816DCF1A92DB4E0AB0250011124B6
:101E2000D12CC12CEFEF9E1689F17501EC0CFD1C35
:101E3000F701E95FFE4FA301920160817181828108
:101E400093810E94591B18169CF4F701E95CFE4F20
:101E50002081318142815381C301B2010E94C119A5
:101E60002B013C018F89988D801B910B988F8F8B54
:101E7000159507959A9494E0C91AD108D3CF00E23A
:101E800010E0E5E09E2E188E1F8AB1CFC301B2018B
:101E90000E942A1B6B017C014B015C0106E080E47F
:101EA00092E4AFE0B0E0898F9A8FAB8FBC8F102F98
:101EB00001509AE089169104A104B104C8F0698D1B
:101EC0007A8D8B8D9C8D2AE030E040E050E00E94BE
:101ED000721B298F3A8F4B8F5C8FC501B4012AE0AA
:101EE00030E040E050E00E94721B49015A01DFCF10
:101EF000C701B6010E9460199B01AC01C301B20188
:101F00000E94B61A4B015C01698D7A8D8B8D9C8D78
:101F10000E9460199B01AC01C501B4010E94C11966
:101F20004B015C010E942A1B2B013C010E9460199D
:101F30009B01AC01C501B4010E94B61A9B01AC0122
:101F40000E94B71A0E942A1B460E571E681E791E51
:101F5000898D9A8DAB8DBC8D481659066A067B0615
:101F6000D8F09FEFC91AD90AE90AF90AAF89B88DE2
:101F7000AB2B39F1BAE0CB16D104E104F10408F13E
:101F8000EF89F88D3196F88FEF8B412C512C32016F
:101F9000C12CD12C7601C3945AE0852E912CA12C12
:101FA000B12CC301B201A50194010E94721B672BE1
:101FB000682B692B51F4111644F429013A01115090
:101FC000F0CF412C512C3201E7CF1E8ACE0146962C
:101FD0009A8F898F4AE0842E912CA12CB12CC701B5
:101FE000B601A50194010E94721B605DA98DBA8D96
:101FF0006E93BA8FA98F69017A01C114D104E104EB
:10200000F10469F7BD01C1010E94BD0D112351F119
:10201000188A6E01B0E1CB0ED11C012F76013AE097
:10202000832E912CA12CB12C015068F0C301B20178
:10203000A50194010E94721B605DF60162936F011D
:1020400029013A01F1CF612F70E0F701E61BF70B90
:1020500031978EE28083609570956E0D7F1DC10172
:102060000E94BD0D8F89988D97FF26C06EEA71E0A2
:10207000C1010E94BD0D6F89788D719561957109BF
:10208000C1010E94ED0D6C960FB6F894DEBF0FBE35
:10209000CDBFDF91CF911F910F91FF90EF90DF9017
:1020A000CF90BF90AF909F908F907F906F905F90F8
:1020B0004F903F902F900895AF89B88DAB2B19F3B7
:1020C00065E6C1010E949A0D6F89788DD9CFFC0118
:1020D000028113816BE5C1010E949A0DD80112960D
:1020E0000D911C910115110581F0B101C8010296F5
:1020F0000E944C0EF801008111810115110529F093
:102100006CE2C1010E949A0DEDCF6DE5C1010E9404
:102110009A0DB9CFDC0112960D911C916BE7C101AC
:102120000E949A0DF8010281138101151105D9F061
:10213000D80112966D917C91C1010E94170E6AE33D
:10214000C1010E949A0DB101C80104960E944C0E73
:10215000F801008111810115110529F06CE2C1011E
:102160000E949A0DE2CF6DE7D1CFDC0112966D91FE
:102170007C91C1010E94170E86CFFC0162817381A0
:10218000C1010E94BD0D7FCF6DE2C1010E949A0D79
:10219000D80112966D917D918D919C9115971E8A13
:1021A0008E010A5E1F4F2AE0C22ED12CE12CF12CA9
:1021B000A70196010E94721B605DF80162938F0176
:1021C000B901CA01611571058105910589F7BF0142
:1021D000D7CFFC0182819381A481B58166E971E04A
:1021E000892B8A2B8B2B61F66BE971E0C9CFEF92BB
:1021F000FF920F931F93CF93DF93EC017B018A0132
:10220000BA010E94460D81110BC0CE010E94580AEE
:10221000CE01DF91CF911F910F91FF90EF90089524
:102220001D830C83B701888199810E94AA1DF0CF7C
:10223000FB0101900020E9F73197AF01461B570BD6
:102240000C94F710FC011182108213821282158205
:1022500014826115710551F0FB0101900020E9F72E
:102260003197AF01461B570B0C94F71008950F934D
:102270001F93CF93DF9300D0CDB7DEB78C016BE80F
:1022800071E00E9422110E94F00097FD0BC089832B
:102290001A8241E050E0BE016F5F7F4FC8010E948B
:1022A0006E0DF1CFC8010F900F90DF91CF911F916C
:1022B0000F9108951F920F920FB60F9211242F9332
:1022C0003F934F935F936F937F938F939F93AF93BE
:1022D000BF93EF93FF938091060390910703A09122
:1022E0000803B0910903892B8A2B8B2BD1F1909194
:1022F0000503E0910303F091040380818927808323
:102300008091060390910703A0910803B0910903FF
:10231000181619061A061B069CF480910603909164
:102320000703A0910803B09109030197A109B1091E
:102330008093060390930703A0930803B0930903C7
:10234000FF91EF91BF91AF919F918F917F916F918D
:102350005F914F913F912F910F900FBE0F901F9063
:102360001895809100010E944402EACF1F920F92BB
:102370000FB60F9211242F933F934F935F936F9358
:102380007F938F939F93AF93BF93EF93FF9381E1DD
:1023900093E00E945E01FF91EF91BF91AF919F91F9
:1023A0008F917F916F915F914F913F912F910F90FE
:1023B0000FBE0F901F9018951F920F920FB60F929D
:1023C00011242F938F939F93EF93FF93E091210319
:1023D000F09122038081E0912703F091280382FD90
:1023E0001BC0908180912A038F5F8F7320912B03F4
:1023F000821741F0E0912A03F0E0EF5EFC4F958FE9
:1024000080932A03FF91EF919F918F912F910F90CD
:102410000FBE0F901F9018958081F4CF1F920F92DE
:102420000FB60F9211242F933F938F939F93AF93E7
:10243000BF9380910D0390910E03A0910F03B09173
:1024400010033091FE0223E0230F2D3758F501963B
:10245000A11DB11D2093FE0280930D0390930E03E6
:10246000A0930F03B09310038091FF02909100039B
:10247000A0910103B09102030196A11DB11D8093AB
:10248000FF0290930003A0930103B0930203BF9156
:10249000AF919F918F913F912F910F900FBE0F9011
:1024A0001F90189526E8230F0296A11DB11DD2CFCB
:1024B000CF93DF93EC014BE050E062E172E00E94C9
:1024C0006E0D811103C0CE010E94580ACE01DF912A
:1024D000CF910895CF92DF92EF92FF920F931F93C7
:1024E000CF93DF93CDB7DEB72C970FB6F894DEBF4E
:1024F0000FBECDBF8C01CB0161EB71E00E94050BDB
:10250000009709F445C07C0124E0E20EF11CC701EC
:102510000E94220DBC01892BE9F56BE871E0CE0128
:1025200001966C010E942211DC86CB86CE010B96AF
:1025300098878F831A861986BE01695F7F4FC7010E
:102540000E944C0E89819A81F801918380838B814E
:102550009C81938382838D819E81958384831A825B
:1025600019821C821B821E821D82C6010E946A0A79
:10257000C8012C960FB6F894DEBF0FBECDBFDF9119
:10258000CF911F910F91FF90EF90DF90CF90089522
:102590006BE871E0C8010E942211EACFAF92BF92AE
:1025A000CF92DF92EF92FF920F931F93CF93DF931F
:1025B0006C015B017A0189012417350720F48F2D06
:1025C0007901042F182F6BE871E0C6010E942211D7
:1025D000D5011496CD91DC91EC16FD06E0F40C17B4
:1025E0001D0708F4E801D501ED91FC911197EC0F5E
:1025F000FD1F108110826D917C916E0D7F1DC601B3
:1026000061157105A1F00E941811F5018081918179
:10261000C80FD91F1883C601DF91CF911F910F9169
:10262000FF90EF90DF90CF90BF90AF9008950E9401
:10263000580AEBCF8F929F92AF92BF92CF92DF92C8
:10264000EF92FF920F931F93CF93DF93EC017A01E8
:10265000DB011496CD90DC908601015011092FEF1B
:102660003FEF50E040E090E080E0F0E0E0E008176D
:1026700019071CF1EE16FF061CF1DC0111965D0135
:102680008C159D0560F4DB018D909C908114910464
:1026900031F0D401A80FB91FAC91AB3319F0081772
:1026A000190749F43196A9014F5F5F4F950108174B
:1026B000190709F09C01C501DACFEE16FF068CF46C
:1026C000CE010E94CE12CE01DF91CF911F910F91CA
:1026D000FF90EF90DF90CF90BF90AF909F908F9042
:1026E00008956BE871E0CE010E942211ECCFE1E188
:1026F000F3E01382128288EE93E0A0E0B0E08483DE
:102700009583A683B78383E591E09183808385ECED
:1027100090E09587848784EC90E09787868780ECAB
:1027200090E0918B808B81EC90E0938B828B82EC9C
:1027300090E0958B848B86EC90E0978B868B118E46
:10274000128E138E148EE0ECF5E0138212828FE667
:1027500091E09183808382E084838FEF858383E09F
:10276000868384E0878385E0808786E0818787E0B1
:1027700082871386148615861686178681E00E9446
:102780009E09E0EBF5E085E691E0918380838AE0A5
:10279000868789E08787E4EBF3E08CEB93E0938313
:1027A000828384EF91E095838483178216828BE77E
:1027B00091E0918380836BE871E08EEA93E00C9462
:1027C0002211CF93DF93CDB7DEB7A1970FB6F89460
:1027D000DEBF0FBECDBF789484B5826084BD84B562
:1027E000816084BD85B5826085BD85B5816085BD0C
:1027F00080916E00816080936E00109281008091C4
:10280000810082608093810080918100816080934B
:102810008100809180008160809380008091B10070
:1028200084608093B1008091B00081608093B0009B
:1028300080917A00846080937A0080917A0082602F
:1028400080937A0080917A00816080937A008091F1
:102850007A00806880937A001092C10082E00E9422
:102860009E0980E00E94440A6BEB71E080EC95E0E9
:102870000E94FD0AE0912103F091220382E080830F
:10288000E0911D03F0911E031082E0911F03F0916F
:1028900020038FEC808310922903E0912503F091AF
:1028A000260386E08083E0912303F0912403808156
:1028B00080618083E0912303F0912403808188600C
:1028C0008083E0912303F0912403808180688083DA
:1028D000E0912303F091240380818F7D80831FB7D3
:1028E000F89480910A03811127C0E1E9F0E0849116
:1028F000E5EAF0E09491E82FF0E0EE0FFF1FED58CD
:10290000FF4FA591B491EC91E92321F461E08AE0B5
:102910000E94160261E08AE00E9470028CB580611C
:102920008CBD8CB580648CBD61E08DE00E9470022E
:1029300061E08BE00E94700280910A038F5F8093B8
:102940000A031FBF61E08091BE050E94700261E032
:102950008091BE050E9416028091BF058F3F09F449
:102960009CC160E00E9470022091BF0530E0F90137
:10297000E155FF4F8491F901E556FF4F0491F901AC
:10298000E957FF4F1491111179C161E08091BF05A2
:102990000E94700260E08091BF050E94160283E0F1
:1029A00090E00197F1F761E08091BF050E94160267
:1029B00062E370E080E090E00E94C60240E064E2E2
:1029C00080EB95E00E945E0340E066E280EB95E0DC
:1029D0000E945E0346E268E480EB95E00E945E039D
:1029E00040E864E580EB95E00E945E0349EA66E515
:1029F00080EB95E00E945E0343E068E580EB95E0A4
:102A00000E945E0348EE6AE580EB95E00E945E035B
:102A100040E46AE280EB95E00E945E034DE362E2EF
:102A200080EB95E00E945E0368E280EB95E00E94F7
:102A30004003982F9370933039F0482F436068E239
:102A400080EB95E00E945E0361E088E00E947002E6
:102A500082E390E00E94D00781E00E9498098BE316
:102A60009FE10197F1F784E690E00E94D00780E0B3
:102A70000E94440A66EC71E080EC95E00E94FD0A39
:102A800060ED77E080E090E00E94C60284EBE82EE3
:102A900083E0F82E01E010E093E0492E512C22E073
:102AA000622E712CCE014C960E94371188A199A1FB
:102AB000892BE1F167ED71E08C8D9D8D0E94A11D48
:102AC000892BA1F582E390E00E94D00762E370E0D9
:102AD00080E090E00E94C60282E390E00E94D0076E
:102AE00062E370E080E090E00E94C60282E390E042
:102AF0000E94D00780E00E94440A6AED71E080ECF9
:102B000095E00E94FD0A81E00E94440A6BEE71E0AC
:102B100080EC95E00E94FD0A10920C0310920B03CA
:102B200068E873E180E090E00E94C60280910B03A8
:102B300090910C03009709F0D1C080E00E94440AF4
:102B40006CEF71E080EC95E00E94FD0A81E00E944C
:102B5000440A6DE072E080EC95E00E94FD0A67E6B1
:102B600072E081E193E00E94FD0A2AE04BE750E029
:102B700060E070E081E193E00E947E0A6EE172E025
:102B800081E193E00E946F0A80E00E94440ACE0136
:102B90000A960E94371161E070E080E090E00E94A8
:102BA000C6028A859B85009711F48BE891E0FA8232
:102BB000E9829C838B83FE82ED828AE08F83CE0143
:102BC00001960E947D0B6C018E859F85892BD9F122
:102BD000C6010E94290B4C0161EB71E0C6010E9405
:102BE000050BB12CA12C009721F004960E94220D18
:102BF0005C01F60180819181892B09F46AC0F8ECAF
:102C00008F16910409F060C080E00E94440A61E2DE
:102C100072E080EC95E00E94FD0A81E00E94440A87
:102C2000B50180EC95E00E94FD0A10930C0300931F
:102C30000B0368EB7BE080E090E00E94C6021092FC
:102C4000BB031092BA03CE010A960E946A0A65E09D
:102C500070E080E090E00E94C602CE014C960E9497
:102C60006A0A80E090E0892B09F41CCF0E944A0197
:102C7000882309F40BCF0E94000008CF81110E9425
:102C8000ED01E12FF0E0EE0FFF1FE358FF4FA5919C
:102C9000B491EC910E2309F478CE4FE062E080EB22
:102CA00095E00E945E0313E062E370E080E090E054
:102CB0000E94C60262E080EB95E00E94400384FF20
:102CC0007DCE115089F77ACE70920C0360920B037F
:102CD000BACFCE010A960E946A0A41CF813091058F
:102CE00009F0F7C080E00E94440A65E372E080ECDE
:102CF00095E00E94FD0A81E00E94440A6BE472E0C4
:102D000080EC95E00E94FD0A80EB95E00E94E004D3
:102D1000882309F4A2CF80EB95E00E94F902882372
:102D200009F49BCF6BE871E0CE0140960E9422111E
:102D3000B12C8091B205B81608F042C08B2D90E0FE
:102D40009C0120553A4F6901F90183816CE172E0E1
:102D5000803110F468EB71E0CE0101960E942211DF
:102D60004D815E8169817A81CE0140960E946E0D0F
:102D7000CE0101960E946A0AF60183811B861A869B
:102D80001D861C861F861E8640E1BE016F5F7F4F39
:102D900090E00E943119BE016F5F7F4FCE010A960D
:102DA0000E9418114E855F856A857B85CE0140960D
:102DB0000E946E0DCE010A960E946A0AB394B9CFA2
:102DC000C888D988C114D10469F0F60180818823AC
:102DD00049F0082E000C990B0E94901DF60181937A
:102DE0006F01F3CF2C893D8941E050E0BE01605F67
:102DF0007F4FCE0101960E94CE128091AE0390913A
:102E0000AF03009709F44EC069817A81611571059D
:102E100009F446C04091B0035091B1032D813E8129
:102E200042175307E8F10E94AA1D8D819E8190935D
:102E3000B3038093B2031E821D82CE0101960E94CD
:102E40006A0A61E672E081E193E00E94FD0A2C8942
:102E50003D8941E050E0BE01605F7F4FCE010196A9
:102E60000E94CE12BE016F5F7F4F81E193E00E940E
:102E70009200CE0101960E946A0A66E672E081E144
:102E800093E00E94FD0A6BE770E081E193E00E940D
:102E9000F30A50920C0340920B03CE014096D5CE1C
:102EA0000E944A1C89819A819093AF038093AE035C
:102EB0008B819C819093B1038093B0038D819E811F
:102EC0009093B3038093B2031A8219821C821B82EF
:102ED000B2CF82309105C9F480E00E94440A6EE6C8
:102EE00072E080EC95E00E94FD0A81E00E94440AB5
:102EF00067E672E080EC95E00E94FD0A6BE770E007
:102F000080EC95E00E94F30AFFCF039709F09FCE73
:102F100080E00E94440A63E872E080EC95E00E9441
:102F2000FD0A81E00E94440A6DE072E080EC95E0C9
:102F30000E94FD0A61E672E081E193E00E94FD0AD1
:102F40006EEA73E081E193E00E94920066E672E02F
:102F500081E193E00E94FD0A6BE770E081E193E07C
:102F60000E94F30A1092BB031092BA03CE01469658
:102F70000E9437118E899F89009711F48BE891E0A8
:102F8000FA82E9829C838B83FE82ED828AE08F83C2
:102F9000CE0101960E947D0B6C0161E070E080E043
:102FA00090E00E94C6028A8D9B8D892B09F471C026
:102FB000C6010E94290B883C910509F06DC0B6013D
:102FC000CE0101960E946A1250E040E0BE016F5FA0
:102FD0007F4FCE0140960E941A13CE0101960E94A7
:102FE0006A0AB601CE0101960E946A1241E050E0E1
:102FF000BE016F5F7F4FCE010A960E941A13CE0169
:1030000001960E946A0A80E00E94440A6DE072E024
:1030100080EC95E00E94FD0A81E00E94440A6DE088
:1030200072E080EC95E00E94FD0A8CEB92E00E9439
:10303000D00780E00E94440ABE01605F7F4F80ECB1
:1030400095E00E94920081E00E94440ABE01665F02
:103050007F4F80EC95E00E94920068EB7BE080E07F
:1030600090E00E94C60210930C0300930B03109291
:10307000BB031092BA036BE871E08EEA93E00E9402
:103080001811CE010A960E946A0ACE0140960E944B
:103090006A0ACE014696D9CD8130910509F070C0FB
:1030A000B601CE010A960E946A1280E00E94440A8C
:1030B0006DE072E080EC95E00E94FD0A81E00E94E4
:1030C000440A6DE072E080EC95E00E94FD0A82E324
:1030D00090E00E94D00762E370E080E090E00E9400
:1030E000C60282E390E00E94D00766E970E080E0CB
:1030F00090E00E94C60284E690E00E94D00780E043
:103100000E94440A64E972E080EC95E00E94FD0AA6
:1031100081E00E94440A1A8219821C821B821E824C
:103120001D826A857B856115710531F04E855F854D
:10313000CE0101960E94F710CE0101960E9458120E
:10314000BC0180EC95E00E949200CE0101960E94A5
:103150006A0A60E177E280E090E00E94C602109384
:103160000C0300930B031092BB031092BA036BE89D
:1031700071E08EEA93E00E941811CE010A9687CF83
:1031800082309105A9F5B601CE010A960E946A1215
:1031900080E00E94440A6DE072E080EC95E00E94BD
:1031A000FD0A81E00E94440A6DE072E080EC95E047
:1031B0000E94FD0A84E690E00E94D00766E970E074
:1031C00080E090E00E94C60284E690E00E94D00772
:1031D00066E970E080E090E00E94C60284E690E03C
:1031E0000E94D00780E00E94440A65EA72E08CCF1A
:1031F0008439914009F04DCF80E00E94440A6CEB85
:1032000072E080EC95E00E94FD0A81E00E94440A91
:103210006CEC72E080EC95E00E94FD0A84EF91E096
:103220000E94D00762E370E080E090E00E94C60256
:1032300084EF91E00E94D00768EB7BE080E090E0B3
:103240000E94C6026BE871E08EEA93E00E941811BA
:1032500010930C0300930B031CCF8EEA93E00C94A5
:103260006A0ABB27FB015527AA27880F991FAA1FA7
:10327000A41710F0A41B83955051B9F7A05DAA3391
:1032800008F0A95DA193009779F7B111B19311925C
:10329000CB010C944B19DC01FC01672F7191772352
:1032A000E1F7329704C07C916D9370836291AE1701
:1032B000BF07C8F308950E949D1908F481E008959E
:1032C000E89409C097FB3EF49095809570956195C0
:1032D0007F4F8F4F9F4F9923A9F0F92F96E9BB2776
:1032E0009395F695879577956795B795F111F8CFF2
:1032F000FAF4BB0F11F460FF1BC06F5F7F4F8F4F5D
:103300009F4F16C0882311F096E911C0772321F052
:103310009EE8872F762F05C0662371F096E8862FEA
:1033200070E060E02AF09A95660F771F881FDAF741
:10333000880F9695879597F90895990F0008550F6E
:10334000AA0BE0E8FEEF16161706E807F907C0F02B
:1033500012161306E407F50798F0621B730B840B33
:10336000950B39F40A2661F0232B242B252B21F40D
:1033700008950A2609F4A140A6958FEF811D811DAD
:1033800008950E94D4190C94451A0E94371A38F0F7
:103390000E943E1A20F0952311F00C942E1A0C94E2
:1033A000341A11240C94791A0E94561A70F3959FBE
:1033B000C1F3950F50E0551F629FF001729FBB272C
:1033C000F00DB11D639FAA27F00DB11DAA1F649FC8
:1033D0006627B00DA11D661F829F2227B00DA11D7B
:1033E000621F739FB00DA11D621F839FA00D611D01
:1033F000221F749F3327A00D611D231F849F600D22
:10340000211D822F762F6A2F11249F5750409AF04A
:10341000F1F088234AF0EE0FFF1FBB1F661F771FD6
:10342000881F91505040A9F79E3F510580F00C94A1
:103430002E1A0C94791A5F3FE4F3983ED4F38695E4
:1034400077956795B795F795E7959F5FC1F7FE2B41
:10345000880F911D9695879597F9089597F99F671D
:1034600080E870E060E008959FEF80EC089500240C
:103470000A941616170618060906089500240A94D9
:1034800012161306140605060895092E0394000C5F
:1034900011F4882352F0BB0F40F4BF2B11F460FFEE
:1034A00004C06F5F7F4F8F4F9F4F089557FD905817
:1034B000440F551F59F05F3F71F04795880F97FBF8
:1034C000991F61F09F3F79F08795089512161306B2
:1034D0001406551FF2CF4695F1DF08C016161706E1
:1034E0001806991FF1CF8695710561050894089516
:1034F000E894BB2766277727CB0197F908952F9289
:103500003F924F925F926F927F928F929F92AF9273
:10351000BF92CF92DF92EF92FF920F931F93CF93C0
:10352000DF93CDB7DEB7CA1BDB0B0FB6F894DEBF57
:103530000FBECDBF09942A88398848885F846E847D
:103540007D848C849B84AA84B984C884DF80EE80C7
:10355000FD800C811B81AA81B981CE0FD11D0FB6D0
:10356000F894DEBF0FBECDBFED0108955058BB27C4
:10357000AA270E94CE1A0C94451A0E94371A38F0D6
:103580000E943E1A20F039F49F3F19F426F40C945F
:10359000341A0EF4E095E7FB0C942E1AE92F0E94E2
:1035A000561A58F3BA17620773078407950720F075
:1035B00079F4A6F50C94781A0EF4E0950B2EBA2F38
:1035C000A02D0B01B90190010C01CA01A001112429
:1035D000FF27591B99F0593F50F4503E68F11A16D5
:1035E000F040A22F232F342F4427585FF3CF469566
:1035F00037952795A795F0405395C9F77EF41F1688
:10360000BA0B620B730B840BBAF09150A1F0FF0F51
:10361000BB1F661F771F881FC2F70EC0BA0F621F3D
:10362000731F841F48F4879577956795B795F7952D
:103630009E3F08F0B0CF9395880F08F09927EE0FC2
:103640009795879508950E942A1B6894B1110C9450
:10365000791A08950E945E1A88F09F5798F0B92F42
:103660009927B751B0F0E1F0660F771F881F991FB7
:103670001AF0BA95C9F714C0B13091F00E94781AC7
:10368000B1E008950C94781A672F782F8827B85FD7
:1036900039F0B93FCCF3869577956795B395D9F70F
:1036A0003EF490958095709561957F4F8F4F9F4F19
:1036B00008950E949D1908F48FEF089597FB072E37
:1036C00016F4009407D077FD09D00E949A1B07FCDE
:1036D00005D03EF4909581959F4F08957095619522
:1036E0007F4F0895A1E21A2EAA1BBB1BFD010DC03E
:1036F000AA1FBB1FEE1FFF1FA217B307E407F507A2
:1037000020F0A21BB30BE40BF50B661F771F881F7D
:10371000991F1A9469F760957095809590959B0113
:10372000AC01BD01CF010895EE0FFF1F0590F4918C
:10373000E02D0994AA1BBB1B51E107C0AA1FBB1FA8
:10374000A617B70710F0A61BB70B881F991F5A952D
:10375000A9F780959095BC01CD0108950F931F9313
:10376000CF93DF938230910510F482E090E0E091F6
:10377000DA05F091DB0530E020E0B0E0A0E0309722
:1037800099F42115310509F44AC0281B390B24305E
:103790003105D8F58A819B816115710589F1FB019D
:1037A00093838283FE0111C0408151810281138184
:1037B00048175907E0F04817590799F4109761F036
:1037C00012960C93129713961C933296CF01DF91A9
:1037D000CF911F910F9108950093DA051093DB05A7
:1037E000F4CF2115310551F04217530738F0A901E4
:1037F000DB019A01BD01DF01F801C1CFEF01F9CF73
:103800009093DB058093DA05CDCFFE01E20FF31F25
:10381000819391932250310939832883D7CF209106
:10382000D8053091D905232B41F420910301309123
:1038300004013093D9052093D805209101013091DE
:1038400002012115310541F42DB73EB74091050124
:1038500050910601241B350BE091D805F091D90554
:10386000E217F307A0F42E1B3F0B2817390778F057
:10387000AC014E5F5F4F2417350748F04E0F5F1FB6
:103880005093D9054093D805819391939FCFF0E051
:10389000E0E09CCFCF93DF930097E9F0FC013297F3
:1038A00013821282A091DA05B091DB05ED0130E0C0
:1038B00020E01097A1F420813181820F931F209185
:1038C000D8053091D9052817390709F061C0F09360
:1038D000D905E093D805DF91CF910895EA01CE177D
:1038E000DF07E8F54A815B819E0141155105B1F77B
:1038F000E901FB83EA8349915991C40FD51FEC1765
:10390000FD0761F4808191810296840F951FE90182
:1039100099838883828193819B838A83F0E0E0E0AE
:1039200012968D919C9113970097B9F52D913C912A
:103930001197CD010296820F931F2091D8053091E7
:10394000D9052817390739F6309751F51092DB055C
:103950001092DA05B093D905A093D805BCCFD383D4
:10396000C28340815181840F951FC817D90761F424
:103970004E5F5F4F88819981480F591F5183408363
:103980008A819B81938382832115310509F0B0CF11
:10399000F093DB05E093DA059ECFFD01DC01C0CF9B
:1039A00013821282D7CFB0E0A0E0E9EDFCE10C94E5
:1039B000811A8C01009751F4CB010E94AE1B8C013F
:1039C000C801CDB7DEB7E0E10C949D1AFC01E60F0B
:1039D000F71F9C0122503109E217F30708F49DC03C
:1039E000D901CD91DC911197C617D70798F0C53052
:1039F000D10530F3CE0104978617970708F3C61B4D
:103A0000D70B2297C193D1936D937C93CF010E94E2
:103A10004A1CD6CF5B01AC1ABD0A4C018C0E9D1E10
:103A2000A091DA05B091DB05512C412CF12CE12C51
:103A3000109731F58091D8059091D9058815990591
:103A400009F05CC04616570608F058C08091010185
:103A500090910201009741F48DB79EB74091050106
:103A600050910601841B950BE817F90708F055C023
:103A7000F093D905E093D805F90171836083A0CF55
:103A80008D919C91119712966C90129713967C9041
:103A90001397A815B90559F56C0142E0C40ED11C65
:103AA000CA14DB0420F1AC014A195B09DA01129651
:103AB000159780F06282738251834083D9016D93A0
:103AC0007C93E114F10471F0D7011396FC93EE930B
:103AD000129776CF22968C0F9D1FF90191838083D8
:103AE000F301EFCFF093DB05E093DA0569CF4816D9
:103AF000590608F42C017D01D3019ACFCB010E9415
:103B0000AE1B7C01009749F0AE01B8010E94981DE0
:103B1000C8010E944A1C870153CF10E000E050CF3B
:103B20009111089581568A5108F48052855808955C
:103B3000FB01DC0102C001900D9241505040D8F7CA
:103B40000895FB01DC018D91019080190110D9F3DA
:103B5000990B0895FB01DC0101900D920020E1F723
:103B6000089510E0C3E6D0E004C0FE010E94941B5B
:0C3B70002196C436D107C9F7F894FFCFA6
:103B7C00FF0000DC0580000000803FCDCCCC3D6F09
:103B8C0012833A95BFD6337D1D9026B3CE010CCD52
:103B9C00CCCC3D0AD7233C17B7D13877CC2B3295F8
:103BAC0095E6241FB14F0A000020410000C84200D6
:103BBC00401C4620BCBE4CCA1B0E5AAEC59D7400A0
:103BCC000000008001A000CD00CD013E01DC0030E2
:103BDC0001000000004305E004F90200000000525F
:103BEC000AA000C906910000000000BB0822225C5C
:103BFC005C6208660C6E0A720D740900636F646572
:103C0C00006E756C6C00747275650066616C736522
:103C1C00004E614E00496E66696E69747900652DBF
:103C2C0000726573756C7400203000426F6F74699C
:103C3C006E672E2E2E00546572687562756E672144
:103C4C00202020202020004443004B6F6E656B73B6
:103C5C006920536572766572202000546572707508
:103C6C007475732E202020202020200043656B20AB
:103C7C00706572616E676B61742E2E2E0020202091
:103C8C0020202020202020202020202020000D0A71
:103C9C00005465726461667461723A2020202020A1
:103CAC00202020200054656D70656C6B616E204B7C
:103CBC0061727475202020202020004D6168617392
:103CCC006973776120416E64612E2E2E2020202096
:103CDC00005549443D003B44455649443D0044454C
:103CEC0056494345204E4F20524547202020202046
:103CFC002020004D656D62616361204B61727475AB
:103D0C002020200043656B205765623A202020203C
:103D1C00202020200054616D626168206B65205763
:103D2C0065623A2020202020202020004B544D207A
:103D3C00746964616B2020202020200074657264FB
:0C3D4C006166746172212020202020009C
:00000001FF
